:020000040800F2
:100000006834002045010008452B0008472B0008F4
:100010004B2B00084F2B0008532B0008000000005A
:10002000000000000000000000000000572B000846
:10003000592B0008000000005B2B00085D2B000816
:100040005F0100085F0100085F0100085F01000810
:100050005F0100085F0100085F0100085F01000800
:100060005F0100085F0100085F0100085F010008F0
:100070005F0100085F0100085F0100085F010008E0
:100080005F0100085F0100085F0100085F010008D0
:100090005F0100085F0100085F0100085F010008C0
:1000A0005F0100085F0100085F0100085F010008B0
:1000B000132A00085F0100085F0100085F010008C3
:1000C0005F0100085F0100085F0100085F01000890
:1000D0005F0100085F2B00087B4200085F010008F9
:1000E0005F0100085F0100085F0100085F01000870
:1000F0005F0100085F0100085F0100085F01000860
:100100005F0100085F0100085F0100085F0100084F
:100110005F0100085F0100085F0100085F0100083F
:100120005F0100085F0100085F0100085F0100082F
:10013000DFF80CD004F050FE00480047FB25000813
:10014000683400200648804706480047FEE7FEE77F
:10015000FEE7FEE7FEE7FEE7FEE7FEE7FEE7FEE777
:1001600047020008310100080CB500200190009002
:100170006C48006840F480306A49086000BF6948F4
:10018000006800F4003000900198401C0190009835
:1001900018B90198B0F5A06FF1D16248006800F479
:1001A000003010B10120009001E000200090009884
:1001B000012843D15C48006840F010005A490860AB
:1001C0000846006820F0030008600846006840F018
:1001D0000200086053484068524948600846406839
:1001E00048600846406840F48060486008464068BF
:1001F00020F47C1048600846406840F4E8104860ED
:100200000846006840F08070086000BF45480068FC
:1002100000F000700028F9D04248406820F0030048
:10022000404948600846406840F00200486000BF0E
:100230003C48406800F00C000828F9D10CBD10B50E
:10024000FFF792FF10BD10B53648006840F001007E
:1002500034490860084640683449084031494860DC
:1002600008460068324908402E4908600846006880
:1002700020F4802008600846406820F4FE004860B2
:100280004FF41F008860FFF7DAFF4FF00060294944
:10029000086010BD10B5002100200022214B5B68D2
:1002A00003F00C0121B1042906D0082928D107E068
:1002B000214B224C236027E01F4B204C236023E07E
:1002C000184B5B6803F47010164B5B6803F48032C4
:1002D000022303EB904022B9194B4343174C236090
:1002E0000DE0104B5B6803F4003323B1144B434320
:1002F000124C236003E0104B4343104C236003E097
:100300000D4B0E4C236000BF00BF064B5B68C3F370
:1003100003130C4CE15C094B1B68CB40074C23607A
:1003200010BD000000100240002002400000FFF855
:10033000FFFFF6FE08ED00E000127A00000000204A
:1003400000093D000400002031490143314A116099
:10035000704770B5002100230F22C47804B32D4CE0
:10036000246804F4E064C4F5E064210AC1F10403E4
:10037000CA40447804FA03F1847814402143090107
:10038000254C0678A155047804F01F050124AC40E3
:1003900005786D11AD0005F1E025C5F8004109E0D3
:1003A000047804F01F050124AC401C4D067876113A
:1003B00045F8264070BD1A4A0A400243154B1B1FE0
:1003C0001A60704739B1134A121D12680243114B6B
:1003D0001B1D1A6006E00F4A121D126882430D4B66
:1003E0001B1D1A607047042808D14FF0E0210969ED
:1003F00041F004014FF0E022116107E04FF0E021ED
:10040000096921F004014FF0E022116170470000FA
:100410000000FA050CED00E000E400E080E100E0FF
:1004200080FFFF1F01684FF6FE721140016000213E
:10043000016041608160C1608D49884208D18C496A
:100440000839496841F00F01894A083A51608AE049
:1004500087491431884208D185490839496841F0F3
:10046000F001834A083A51607DE081492831884291
:1004700008D17F490839496841F470617C4A083ADB
:10048000516070E07A493C31884208D17849083996
:10049000496841F47041764A083A516063E0744912
:1004A0005031884208D172490839496841F47021B5
:1004B0006F4A083A516056E06D496431884208D16C
:1004C0006B490839496841F47001694A083A51603A
:1004D00049E067497831884208D165490839496857
:1004E00041F07061624A083A51603CE061498842DB
:1004F00006D1011F096841F00F01021F116032E0AF
:100500005C491431884208D15A49091F096841F0F1
:10051000F001584A121F116025E0564928318842DF
:1005200008D15449091F096841F47061514A121FEA
:10053000116018E04F493C31884208D14D49091FEC
:10054000096841F470414B4A121F11600BE04949A0
:100550005031884207D14749091F096841F4702189
:10056000444A121F1160704710B50022026847F616
:10057000F0739A430C6A8B6823430C6923434C69DC
:1005800023438C692343CC6923434C6A23438C6AFD
:1005900023431A430260CB6843600B6883604B6857
:1005A000C36010BD0021016041608160C1600161D4
:1005B00041618161C161016241628162704721B123
:1005C000026842F00102026004E002684FF6FE7326
:1005D0001A40026070471AB103680B43036002E0DF
:1005E00003688B4303607047416070470146486869
:1005F00080B2704701460020002201F080531BB1F9
:100600001C4B083B1A6802E0194B083B1A6802EAC7
:1006100001030BB1012000E00020704700F0805181
:1006200019B11449091F086002E0114908394860EE
:10063000704701460020002201F080531BB10D4B92
:10064000083B1A6802E00A4B083B1A6802EA0103F9
:100650000BB1012000E00020704700F0805119B17B
:100660000449091F086002E00149083948607047E1
:10067000080002400804024010B50446CC488442F9
:1006800008D10121042000F02DFB0021042000F0FE
:1006900029FB46E0C748844208D10121082000F028
:1006A00021FB0021082000F01DFB3AE0C2488442F3
:1006B00008D10121102000F015FB0021102000F0CE
:1006C00011FB2EE0BD48844208D10121202000F01A
:1006D00009FB0021202000F005FB22E0B8488442FD
:1006E00008D10121402000F0FDFA0021402000F057
:1006F000F9FA16E0B348844208D10121802000F0C5
:10070000F1FA0021802000F0EDFA0AE0AE488442C0
:1007100007D10121801500F0E5FA0021A01500F0B5
:10072000E1FA10BD10B50121084600F0DBFA002106
:10073000012000F0D7FA10BD2DE9F0410246002556
:100740000026002000230024002791F803C00CF0AD
:100750000F0591F803C00CF0100CBCF1000F03D092
:1007600091F802C04CEA050591F800C0BCF1000FF9
:1007700031D0146800202BE04FF0010C0CFA00F38C
:10078000B1F800C00CEA03069E4220D183004FF06E
:100790000F0C0CFA03F7BC4305FA03FC4CEA040403
:1007A00091F803C0BCF1280F06D14FF0010C0CFAF0
:1007B00000FCC2F814C00AE091F803C0BCF1480F75
:1007C00005D14FF0010C0CFA00FCC2F810C0401C1F
:1007D0000828D1D31460B1F800C0BCF1FF0F34DD9C
:1007E000546800202EE000F1080C4FF0010808FAD0
:1007F0000CF3B1F800C00CEA03069E4221D183003D
:100800004FF00F0C0CFA03F7BC4305FA03FC4CEA5B
:10081000040491F803C0BCF1280F05D100F1080CC5
:1008200008FA0CF8C2F8148091F803C0BCF1480F24
:1008300007D100F1080C4FF0010808FA0CF8C2F8D3
:100840001080401C0828CED35460BDE8F0814FF6DC
:10085000FF710180022181700421C170704702463E
:10086000002093680B400BB1012000E0002070478E
:100870000146886880B2704702460020D3680B406A
:100880000BB1012000E0002070470146C86880B22B
:10089000704701617047416170470AB1016100E032
:1008A00041617047C16070474FF480320A438261F2
:1008B0008161826182698269704702460020434BF0
:1008C00018684FF68073184040EA021008433F4B07
:1008D000186070473E49C8617047F0B50A4600236A
:1008E00000240021002500F00046B6F1004F02D19F
:1008F000364EF16901E0354E7168C0F3034583B2AD
:1009000000F44016B6F5401F08D121F070612F4E5B
:10091000766826F070662D4F7E6012E000F4801637
:10092000B6F5801F06D1032606FA05F4A14341F06F
:10093000706106E0460D360103FA06F6B14341F058
:10094000706122B1460D360103FA06F6314300F01C
:100950000046B6F1004F02D11C4EF16101E01B4E82
:100960007160F0BD30B500228B071C0F0F2303FA16
:1009700004F2164B08338C1053F824309343134C75
:1009800008348D1044F8253023468C1053F8243059
:100990008C07240F00FA04F423430C4C08348D1008
:1009A00044F8253030BD0A49DC310860704700004A
:1009B00000080140000C01400010014000140140FB
:1009C00000180140001C01400020014000000140CF
:1009D00000002042DF48006840F00100DD49086067
:1009E00008464068DC490840DA4948600846006823
:1009F000DA490840D74908600846006820F480209A
:100A000008600846406820F4FE0048604FF41F006C
:100A100088607047CF49096821F48031CD4A116060
:100A20001146096821F480211160B0F5803F03D0A0
:100A3000B0F5802F0ED106E0C649096841F4803137
:100A4000C44A116007E0C349096841F4A021C14AC2
:100A5000116000E000BF00BF704710B501460022E2
:100A6000002300204A11012A02D1BA4C236806E073
:100A7000022A02D1B74C236A01E0B64C636A01F046
:100A80001F02012494401C400CB1012000E0002012
:100A900010BD38B5002000900024002500BF312093
:100AA000FFF7DBFF05460098401C00900098B0F56A
:100AB000A06F01D0002DF2D03120FFF7CEFF08B19A
:100AC000012400E00024204638BD01460020A14A50
:100AD000106820F0F80040EAC10010607047A0499B
:100AE00008607047024600209A4B586820F47C103A
:100AF00042EA01031843974B5860704798490866CB
:100B0000704701460020934A506820F003000843D4
:100B1000506070478F48406800F00C0070470146F5
:100B200000208C4A506820F0F00008435060704765
:100B300001460020874A506820F4E0600843506076
:100B4000704701460020834A506820F4605040EA14
:100B5000C1005060704729B17E4A527A02437D4BF2
:100B60005A7204E07B4A527A82437A4B5A72704737
:100B70007B49D8310860704701460020754A5068AB
:100B800020F440400843506070470021714A2032F1
:100B90001170704A82F82010012802D004280AD16E
:100BA00004E001216B4A2032117005E00521694AF9
:100BB0002032117000E000BF00BF70476949086033
:100BC00070476449096A0143624A11627047654986
:100BD00044390860704730B500210022002400230A
:100BE0005C4D6D6805F00C0121B1042905D0082980
:100BF00023D105E05C4D056022E05B4D05601FE000
:100C0000544D6D6805F47012524D6D6805F48034D2
:100C1000022505EB92421CB9544D554305600BE08B
:100C20004C4D6D6805F400351DB1504D55430560C0
:100C300002E04D4D5543056002E04B4D056000BF9D
:100C400000BF444D6D6805F0F0010909484D6B5C2B
:100C50000568DD4045603F4D6D6805F4E061090AB7
:100C6000434D6B5C4568DD4085603A4D6D6805F429
:100C70006051C90A3E4D6B5C4568DD40C560354D2D
:100C80006D6805F44041890B3A4D6B5CC568B5FB56
:100C9000F3F5056130BD29B12E4A526902432D4B4F
:100CA0005A6104E02B4A526982432A4B5A617047C9
:100CB00029B1284A92690243264B9A6104E0254AE9
:100CC00092698243234B9A61704729B1214AD269C4
:100CD0000243204BDA6104E01E4AD26982431D4B75
:100CE000DA61704729B11B4AD2680243194BDA60B6
:100CF00004E0184AD2688243164BDA60704729B183
:100D0000144A12690243134B1A6104E0114A126932
:100D10008243104B1A61704712494039086070478E
:100D20000F49C86470470B49C87170470948406A49
:100D300040F0807007494862704701460020054A2C
:100D400092680A400AB1012000E000207047014982
:100D500088727047001002400000FFF8FFFFF6FEA7
:100D6000000042428004424200127A0000093D0025
:100D7000140000202400002010B50446BE48844220
:100D800008D101218014FFF7ADFF0021A014FFF767
:100D9000A9FF16E0B948844208D101210014FFF7E9
:100DA000AEFF00212014FFF7AAFF0AE0B4488442F6
:100DB00007D10121C013FFF7A2FF0021E013FFF7C5
:100DC0009EFF10BD10B50022028802F441520B882C
:100DD0004C8823438C882343CC8823430C892343AA
:100DE0004C8923438C892343CC8923431A430280B3
:100DF000838B4FF2FF74234083830B8A038210BDE1
:100E00002DE9F04F85B005460C464FF0000902274A
:100E10004FF000084FF0010B0026B246A88B4FF2AE
:100E200040010840A88302202884B5F81C90A068DF
:100E3000022801D100BF38E0A08810B94FF0010BA3
:100E400001E04FF0020B8D48854200D100E000BF69
:100E50006846FFF7C0FEDDF800A0E088B0F5007F2F
:100E60000AD14FEA1A2000EB80004000A168B0FBD5
:100E7000F1F0401D86B20BE04FEA4B10BAFBF0F0E8
:100E800000EB80004000A168B0FBF1F0401D86B28D
:100E90000A20B6FBF0F606F00108A6EB0800C0F346
:100EA0004F074FF6FF7000EA0828022F01DBFF2FE3
:100EB00002DD02274FF00008E08840EA08003843CE
:100EC0002884A088A18908436188084321880843B1
:100ED00040F4006040EA0909A5F81C9005B0BDE89F
:100EE000F08F0021018041808180C180018141819A
:100EF0008181C181072101827047002101804180E9
:100F00008180C1800221816000218181704721B1EF
:100F1000028842F04002028004E002884FF6BF736C
:100F20001A400280704721B1828B42F48062828332
:100F300004E0828B4FF6FF331A408283704730B54E
:100F4000002400230C110125A540ABB21AB18588FD
:100F50001D43858002E085889D43858030BD1AB1A0
:100F600083880B43838002E083888B4383807047B0
:100F7000818170470146888970474FF6FF62914230
:100F800004D0028842F48072028004E002884FF6A6
:100F9000FF631A400280704721B1828842F0040248
:100FA000828004E082884FF6FB731A40828070478B
:100FB00002884FF2FF731A40028002880A430280BF
:100FC0007047018841F480510180704721B1028847
:100FD00042F40052028004E002884DF6FF731A408A
:100FE0000280704702460020012901D0108B00E0EA
:100FF000908A70470146088A7047B1F5804F04D146
:10100000028842F48042028004E002884BF6FF73BB
:101010001A40028070470246002013890B400BB132
:10102000012000E000207047CA4302817047F0B5FC
:101030000246002000240023002501F00F070126AE
:10104000BE40B4B20B1101269E40B3B2968806EAA8
:1010500003051689264016B10DB1012000E00020DD
:10106000F0BD10B5002201F00F040123A3409AB295
:10107000D343038110BD0000003001400038004020
:10108000003C004010B50446FE48844208D10121CE
:10109000C014FFF727FE0021E014FFF723FEC4E091
:1010A000B4F1804F08D101210846FFF728FE002146
:1010B0000120FFF724FEB8E0F348844208D1012163
:1010C0000220FFF71CFE00210220FFF718FEACE013
:1010D000EE48844208D101210420FFF710FE0021D0
:1010E0000420FFF70CFEA0E0E948844208D101216A
:1010F0000820FFF704FE00210820FFF700FE94E01F
:10110000E448844208D101211020FFF7F8FD0021B6
:101110001020FFF7F4FD88E0DF48844208D1012168
:101120002020FFF7ECFD00212020FFF7E8FD7CE008
:10113000DA48844208D101214014FFF7D3FD002191
:101140006014FFF7CFFD70E0D548844209D101213A
:10115000C804FFF7C7FD00214FF40020FFF7C2FDD0
:1011600063E0D048844209D101210805FFF7BAFDA8
:1011700000214FF48010FFF7B5FD56E0CA488442C5
:1011800009D101214805FFF7ADFD00214FF4001002
:10119000FFF7A8FD49E0C548844208D1012140205D
:1011A000FFF7ADFD00214020FFF7A9FD3DE0C0485D
:1011B000844208D101218020FFF7A1FD0021802079
:1011C000FFF79DFD31E0BB48844208D10121801525
:1011D000FFF795FD0021A015FFF791FD25E0B6482A
:1011E000844209D101210804FFF77CFD00214FF45E
:1011F0008030FFF777FD18E0B048844209D1012123
:101200004804FFF76FFD00214FF40030FFF76AFD3F
:101210000BE0AB48844208D101218804FFF762FD4E
:1012200000214FF48020FFF75DFD10BD00220288F1
:10123000944B98420ED0994B98420BD0B0F1804F0E
:1012400008D0914B984205D0904B984202D0904BD9
:10125000984204D14FF68F731A404B881A438D4B36
:10126000984207D08C4B984204D04FF6FF431A4067
:10127000CB881A4302808B8883850B880385814B3A
:1012800098420BD0854B984208D08B4B984205D0A2
:101290008A4B984202D08A4B984201D10B7A03863E
:1012A00001238382704770B5002400220023058C3F
:1012B0004FF6FE7635400584028C8388048B4FF60A
:1012C0008F752C40B51E2C400D882C43751E2A406E
:1012D0000D892A434D882A436A4DA8420BD06F4D91
:1012E000A84208D0744DA84205D0744DA84202D03F
:1012F000734DA84213D14FF6F7752A404D892A4302
:101300004FF6FB752A408D882A434FF6FF652B4028
:101310004FF6FF552B408D892B43CD892B4383807E
:101320000483CD888586028470BD70B500240022B8
:101330000023058C4FF6EF7635400584028C8388B8
:10134000048B48F6FF752C404FF6FF452C400D8866
:101350004FF6FF7606EA05252C434FF6DF752A4047
:101360000D8906EA05152A434D8806EA05152A4324
:10137000444DA84202D0494DA8421DD14FF67F7579
:101380002A404D894FF6FF7606EA05152A434FF6A7
:10139000BF752A408D8806EA05152A434FF6FF35AA
:1013A0002B404FF2FF752B408D8906EA85052B43B4
:1013B000CD8906EA85052B4383800483CD88058784
:1013C000028470BD70B5002400220023058C4FF606
:1013D000FF6635400584028C8388848B4FF68F75B9
:1013E0002C404FF6FC752C400D882C434FF6FF55D2
:1013F0002A400D894FF6FF7606EA05252A434D88D7
:1014000006EA05252A431F4DA84202D0234DA842D3
:101410001DD14FF2FF752A404D894FF6FF7606EA3F
:1014200005252A434FF6FF352A408D8806EA052513
:101430002A434EF6FF752B404DF6FF752B408D89E4
:1014400006EA05152B43CD8906EA05152B43838053
:101450008483CD888587028470BD70B50022002307
:101460000024058C4EF6FF7635400584038C848875
:10147000828B48F6FF752A404FF6FF452A400D88BB
:1014800020E00000002C0140000400400008004063
:10149000000C0040001000400014004000340140E7
:1014A000004C014000500140005401400018004031
:1014B000001C00400020004000400140004401406A
:1014C000004801404FF6FF7606EA05252A434DF60F
:1014D000FF752B400D8906EA05352B434D8806EA3A
:1014E00005352B43FA4DA84202D0FA4DA84208D147
:1014F0004BF6FF752C408D894FF6FF7606EA851571
:101500002C4384808283CD88A0F84050038470BD32
:10151000828B4FF2FF331A408283828B4FF6FF7328
:1015200003EA01231A4382837047F0B50C4615463F
:10153000002200210026078C4EF6FF7C07EA0C07EC
:101540000784828B018C4FF6FF7707EA043640F65A
:10155000FF473A404FF6FF7707EA05273A434FF631
:10156000FF7707EA03373A43D94FB8420ED0D94F35
:10157000B8420BD0B0F1804F08D0D74FB84205D059
:10158000D64FB84202D0D64FB84206D14DF6FF77BB
:10159000394046F48057394305E047F6FF57394054
:1015A00044F48057394382830184F0BD828B4FF627
:1015B000F3731A408283828B0A4382837047F0B5AB
:1015C0000C461546002200210026078C4FF6FF6CC2
:1015D00007EA0C070784828B018C4FF6FF7707EA36
:1015E00004264FF60C773A404FF6FF7707EA0317C9
:1015F0002F433A43B64FB8420ED0B64FB8420BD045
:10160000B0F1804F08D0B44FB84205D0B34FB842C4
:1016100002D0B34FB84206D14FF6FF57394046F4D7
:101620008077394305E04FF2FF57394044F4807723
:10163000394382830184F0BD028B4FF2FF331A409D
:101640000283028B4FF6FF7303EA01231A430283DE
:101650007047F0B50C461546002200210026078C85
:101660004FF6EF7C07EA0C070784028B018C4FF6DC
:10167000FF7707EA041640F6FF473A404FF6FF7738
:1016800007EA03373A434FF6FF7707EA05273A435D
:101690008F4FB8420ED08F4FB8420BD0B0F1804F71
:1016A00008D08D4FB84205D08C4FB84202D08C4F35
:1016B000B84206D14FF6DF77394046F0100739437C
:1016C00005E04FF65F77394044F010073943028355
:1016D0000184F0BD028B4FF6F3731A400283028B34
:1016E0000A4302837047F0B50C46154600220021DC
:1016F000068C4FF6FE773E400684028B018C4FF637
:101700000C7632407E1C06EA03162E433243704E9E
:10171000B0420ED06F4EB0420BD0B0F1804F08D027
:101720006D4EB04205D06D4EB04202D06C4EB0420C
:1017300006D14FF6FD76314044F00106314305E015
:101740004FF6F576314044F00106314302830184BF
:10175000F0BD70B505460C465D4885420ED05D482B
:1017600085420BD0B5F1804F08D05B48854205D04B
:101770005A48854202D05A48854200D100E000BF55
:10178000208850B92389A28861882846FFF7ABFFDB
:10179000E1882846FFF79EFF25E0208804280AD12B
:1017A0002389A28861882846FFF753FFE1882846ED
:1017B000FFF742FF17E0208808280AD12389A28872
:1017C00061882846FFF7FBFEE1882846FFF7EEFE1A
:1017D00009E02389A28861882846FFF7A6FEE188F0
:1017E0002846FFF795FE70BD2DE9F04105460C46F1
:1017F00000260127608808B9022600E00026A0889C
:10180000012801D1022700E001272088A0B92389FF
:10181000A28861882846FFF766FFE1882846FFF71F
:1018200059FF23893A4631462846FFF712FFE188DF
:101830002846FFF701FF13E02389A2886188284624
:10184000FFF707FFE1882846FFF7F6FE23893A46AF
:1018500031462846FFF747FFE1882846FFF73AFF61
:10186000BDE8F0810A884B881A438B881A43CB88DD
:101870001A430B891A434B891A438B891A43A0F8E0
:10188000442070474FF6FF71818000210180C180A4
:101890004180017270470021018041808180C180B8
:1018A000018141818181C181704700210180418096
:1018B000012181800021C1800181704700210180C8
:1018C00041808180C1800181418181817047000018
:1018D000002C01400034014000040040000800409A
:1018E000000C004021B1028842F00102028004E0B5
:1018F00002884FF6FE731A400280704731B1B0F88B
:10190000442042F40042A0F8442005E0B0F844200E
:10191000C2F30E02A0F8442070471AB183890B432A
:10192000838102E083898B43838170478182704782
:1019300041EA0203A0F8483070471AB183890B438B
:10194000838102E083898B438381704701894FF64D
:10195000F8721140018170470A46002101894FF653
:101960008F73194011430181704730B504460D460D
:1019700029462046FFF7F0FF208940F0070020812C
:1019800030BD2DE9F04104460D4616461F46602D38
:1019900006D13B46012231462046FFF75AFE05E0BC
:1019A0003B46012231462046FFF79DFE2946204650
:1019B000FFF7D2FF208940F007002081BDE8F081C9
:1019C00030B50C4600210189C9B24FF6FF7505EA12
:1019D0000325154325432943018130BD2DE9F041FD
:1019E00005460E4617469846002443463A46314679
:1019F0002846FFF7E5FF2C894FF6F870044044F0C5
:101A000007044FF68F70044044F070042C81BDE849
:101A1000F081F0B504460D4616461F463B46324659
:101A200029462046FFF7CCFF208940F480402081E2
:101A3000F0BD0185828270470A46002101884FF679
:101A40008F731940114301807047F0B50C4615465D
:101A50001E460021002200230189028B038C4FF6D1
:101A6000F877394021434FF6FC473A4040F20117DE
:101A70003A434FF6DD773B404FF6FF7707EA06170C
:101A80002F433B43018102830384F0BD0A460021BA
:101A9000018B4FF68F7319401143018370470A463B
:101AA0000021018B48F6FF7319404FF6FF7303EADC
:101AB00002231943018370470A460021818B4FF6A8
:101AC0008F7319401143818370470A460021818B2F
:101AD00048F6FF7319404FF6FF7303EA02231943D8
:101AE0008183704721B1028842F08002028004E0C5
:101AF00002884FF67F731A400280704721B18288B6
:101B000042F00402828004E082884FF6FB731A40A0
:101B10008280704721B1828842F00802828004E00E
:101B200082884FF6F7731A408280704721B182880D
:101B300042F00102828004E082884FF6FE731A4070
:101B4000828070470A460021018B4FF6F7731940D7
:101B50001143018370470A460021018B4FF2FF7346
:101B600019404FF6FF7303EA0223194301837047BC
:101B70000A460021818B4FF6F77319401143818388
:101B800070470A460021818B4FF2FF7319404FF6D0
:101B9000FF7303EA02231943818370470A46002139
:101BA000018B4FF6FB7319401143018370470A46BE
:101BB0000021018B4FF6FF3319404FF6FF7303EA04
:101BC00002231943018370470A460021818B4FF697
:101BD000FB7319401143818370470A460021818BB2
:101BE0004FF6FF3319404FF6FF7303EA0223194300
:101BF000818370470A460021018B4FF67F7319409D
:101C00001143018370470A460021018BC1F30E0185
:101C10004FF6FF7303EA02231943018370470A4614
:101C20000021818B4FF67F731940114381837047E8
:101C30000A460021818BC1F30E014FF6FF7303EAC0
:101C400002231943818370470A460021018C4FF615
:101C5000FD7319401143018470470A460021018C2D
:101C60004FF6F77319401143018470470A4600216B
:101C7000018C4FF6DF7319404FF6FF7303EA02132E
:101C80001943018470470A460021018C4FF67F7387
:101C900019404FF6FF7303EA02131943018470479A
:101CA0000A460021018C4FF6FF5319404FF6FF738F
:101CB00003EA02231943018470470A460021018C7C
:101CC0004FF2FF7319404FF6FF7303EA02231943E3
:101CD000018470470A460021018C4DF6FF731940BC
:101CE0004FF6FF7303EA023319430184704730B59E
:101CF000002301248C40A3B2048C9C430484048CF4
:101D000002FA01F5ADB22C43048430BD30B5002396
:101D100004248C40A3B2048C9C430484048C02FAF7
:101D200001F5ADB22C43048430BD70B503460020EC
:101D300000241846183001258D40ACB21D8CA543F7
:101D40001D8409B1082909D100EB6100056825F05F
:101D5000700505600568154305600EE00D1FC5F3AD
:101D60004E052844056825F4E045056005684FF6F2
:101D7000FF7606EA02263543056070BD21B1028870
:101D800042F00202028004E002884FF6FD731A401E
:101D90000280704721B1028842F00402028004E010
:101DA00002884FF6FB731A400280704721B1828887
:101DB00042F08002828004E082884FF67F731A40EE
:101DC0008280704702884FF6F7731A4002800288BB
:101DD0000A430280704782884FF68F731A408280D0
:101DE00082880A438280704702894FF6F8731A404E
:101DF000028102890A430281704702894FF67F738C
:101E00001A40028102890A43028170478184704727
:101E10008185704781867047018770478187704749
:101E2000A0F84010704702884FF6FF431A40028026
:101E300002880A43028070470146888E7047014637
:101E4000088F70470146888F70470146B1F84000FF
:101E500070470146888C70470146088D70470246DE
:101E60000020138A0B400BB1012000E000207047D6
:101E7000CA430282704730B5024600200023002486
:101E8000158A05EA0103958905EA010413B10CB12D
:101E9000012000E0002030BDCA43028270470000EC
:101EA00010B50446FB48844209D101218803FEF79E
:101EB00019FF00214FF48040FEF714FF32E0F6488E
:101EC000844209D101214804FEF719FF00214FF493
:101ED0000030FEF714FF25E0F048844209D10121CB
:101EE0008804FEF70CFF00214FF48020FEF707FF67
:101EF00018E0EB48844209D10121C804FEF7FFFE37
:101F000000214FF40020FEF7FAFE0BE0E548844282
:101F100008D101210805FEF7F2FE00214FF48010E0
:101F2000FEF7EDFE10BD2DE9F04786B005460E46E2
:101F30000024A24600BFA1460027B08900B100BF1F
:101F40002F462C8A4CF6FF700440F08804432C8204
:101F5000AC894EF6F3100440B0883189084371898A
:101F600008430443AC81AC8A4FF6FF400440B0897B
:101F70000443AC8201A8FEF72EFEC648874202D178
:101F8000DDF810A001E0DDF80CA0A88900F4004005
:101F900040B10AEBCA0000EB0A1031684900B0FBFF
:101FA000F1F807E00AEBCA0000EB0A10316889007B
:101FB000B0FBF1F86420B8FBF0F0040120096421C3
:101FC00001FB1089A88900F4004040B1322000EBE9
:101FD000C900B0FBF1F000F00700044308E0322034
:101FE00000EB09106421B0FBF1F000F00F00044396
:101FF0002C8106B0BDE8F0874FF416510160002136
:102000008180C18001810C21418100218181704743
:1020100010B502460020108A4FF2FF0318400B88CB
:102020004C8823438C882343CC8823431843108255
:1020300010BD0021018041808180C180704721B1A5
:10204000828942F40052828104E082894DF6FF7356
:102050001A4082817047F0B503460024002600250F
:10206000002040F66A17B94200D100BF1846C1F3FC
:10207000421401F01F06012707FA06F5012C01D1D1
:102080000C3004E0022C01D1103000E014301AB101
:1020900007682F43076002E00768AF430760F0BDA1
:1020A0001AB1838A0B43838202E0838A8B43838243
:1020B0007047028A4FF6F0731A400282028A0A437E
:1020C0000282704782894FF2FF731A4082818289AF
:1020D0000A438281704721B1828942F002028281E3
:1020E00004E082894FF6FD731A4082817047028AAC
:1020F0004FF6DF731A400282028A0A430282704757
:1021000021B1028A42F48042028204E0028A4BF644
:10211000FF731A4002827047C1F308028280704741
:1021200001468888C0F308007047818941F00101A9
:1021300081817047028BD2B20283028B42EA012274
:1021400002837047028B02F47F420283028B0A43B0
:102150000283704721B1828A42F02002828204E029
:10216000828A4FF6DF731A408282704721B1828AD9
:1021700042F01002828204E0828A4FF6EF731A4026
:102180008282704721B1828A42F00802828204E092
:10219000828A4FF6F7731A408282704721B1828992
:1021A00042F40042828103E08289C2F30E028281FE
:1021B000704721B1828A42F40062828204E0828AFE
:1021C0004FF2FF731A4082827047828A4FF6FB7388
:1021D0001A408282828A0A438282704721B1828AAF
:1021E00042F00202828204E0828A4FF6FD731A40B6
:1021F0008282704702460020B1F5007F00D100BF07
:1022000013880B400BB1012000E00020704701F45F
:102210000072B2F5007F00D100BFCA430280704750
:1022200070B50246002400230025002040F66A16FF
:10223000B14200D100BFC1F3421501F01F030126D6
:1022400006FA03F3012D02D19689334006E0022DF0
:1022500002D1168A334001E0968A33400C120126DF
:1022600006FA04F41688344013B10CB1012000E0E2
:10227000002070BD10B50022002340F66A14A14270
:1022800000D100BF0A1201249440A3B2DC430480B1
:1022900010BD0000003801400044004000480040EC
:1022A000004C004000500040FA490978FA4A117089
:1022B000F84908707047F9490870704770B50546CD
:1022C000002600241CE004EBC400F54901EBC0002B
:1022D000D0E90010D5E900235140584001430ED108
:1022E00004EBC400EE4901EBC000006C401C04EBA1
:1022F000C401EB4A02EBC1010864012604E0641C3E
:10230000E84800688442DEDB00BFE6B9E5480068C3
:10231000422803DBE4A003F04BF870BDE1480068FD
:10232000401CE049086004EBC401DD4A02EBC10037
:102330004022294602F0D2F8012004EBC401D84A19
:1023400002EBC101086400BFE7E70020D54908603F
:1023500070472DE9F04186B0DEA003F029F8002493
:1023600024E004EBC401CE4A02EBC101886802F00C
:102370001FFA05460E4604EBC400C94901EBC00034
:10238000006CCDE90256049004EBC40001EBC000E0
:102390000C30009004EBC40001EBC000D0E90073E6
:1023A0003A46611CD3A003F003F8641CBD480068E2
:1023B0008442D6DBDCA002F0FBFF06B0BDE8F08172
:1023C00010B5B8480168B64801F00CFD10BD10B555
:1023D00004461CB1DCA002F0EBFF02E0E0A002F03A
:1023E000E7FF10BDF0B595B0E34801F0A8F800286C
:1023F0006ED0E1480078052825D2DFE800F0B1036F
:1024000025537C00A5480078D0B90420FFF74CFF85
:10241000D9484068D949086008460168D8A002F048
:10242000C7FF0120FFF747FF01F090F9DEA002F09F
:10243000BFFF0220FFF73FFF0020DF49086002E0F6
:10244000DEA002F0B5FF8CE094480078022828D185
:10245000C948007C18B9E0A002F0AAFF81E0C64894
:102460001830C5494969CDE900101838D0E9024350
:102470002246D148006801F097F9CF480068401C17
:10248000CD490860084600683221B0FBF1F201FB3B
:10249000120030B9B9480268C7480168D7A002F0F5
:1024A00087FF5EE07D480078022823D1B248426869
:1024B000C1480168D9A002F07BFFAF484068BE491F
:1024C0000968884209D1BC48006801F058F900E069
:1024D00048E0DCA002F06CFF05E0E5A002F068FF38
:1024E000EBA002F065FF0020FFF7E5FE6A480078E8
:1024F000FFF7DAFE35E06948007800282CD19E48C5
:10250000007C18B9B4A002F053FF2AE09A4804AA4C
:10251000D0E90231184601F07EF9C8B1069802F000
:1025200047F9044607A8CDE900410290DDE90463BC
:102530003246E2A002F03CFF04A8FFF7BFFEFFF71F
:1025400008FFFFF73DFF01F090FC01F0B7FC02E04F
:10255000E3A002F02DFF02E0EBA002F029FF00E073
:1025600000BF00BF15B0F0BD1FB501210846FEF742
:10257000ACFB42F20F70ADF8080041F61F40ADF819
:1025800004000020ADF80A00ADF8060001A94FF0E4
:102590008040FEF74BFE012211469007FFF7BDF980
:1025A0001C208DF8000002208DF8010000208DF81D
:1025B000020001208DF803006846FDF7CAFE0121E4
:1025C0008807FFF78FF91FBD08B5012240F225519A
:1025D000D448FFF740FD4FF4A060FDF7B5FE25207D
:1025E0008DF8000001208DF801008DF802008DF8B3
:1025F00003006846FDF7ADFE08BD00F037FEFFF7AB
:10260000E3FF01F017FC01F063FA01F033FF00F083
:10261000C1FA00F025FF01F067F801F049F9FFF772
:10262000A3FF0121C048FEF734F92020BF4908600C
:102630000120091F08600220086001F06EFBBCA0A9
:1026400002F0B6FE322001F080FAD0E1FFF7CAFEB8
:1026500010480078052818D2DFE800F0031B1A198B
:10266000180001F0EFFB78B1BAA002F0A1FE012042
:10267000FFF7ADFE4FF4487001F067FA0020FFF756
:10268000A6FE0120FFF710FEB0E1AEE1ACE1AAE149
:1026900079E16DE129000020280000202A000020B7
:1026A000B00000203C00002053686F7070696E67B6
:1026B000204361722046756C6C212043616E6E6F01
:1026C0007420416464204D6F7265204974656D7398
:1026D0002E0D0A002D2D2D2D2053686F7070696E00
:1026E00067204361722044756D70202D2D2D2D0DB6
:1026F0000A0000004974656D2025643A2049443D74
:10270000256C6C752C204E616D653D25732C205019
:10271000726963653D252E32662C20436F756E7499
:102720003D25640D0A0000002D2D2D2D2D2D2D2D64
:102730002D2D2D2D2D2D2D2D2D2D2D2D2D2D2D2DC9
:102740002D2D2D0D0A000000536572766F20446F09
:102750006F72204F70656E65642E0D0A00000000D8
:10276000536572766F20446F6F7220436C6F736590
:10277000642E0D0A000000006800002030000020D8
:102780003C3C2053594E435F5354415254203E3EEB
:1027900020457870656374696E67202564206974CC
:1027A000656D732E0D0A0000434D443A5245515F4A
:1027B00053594E430A0000002C000020434D443A78
:1027C000414C41524D2C4D53473A427573795F53FA
:1027D000796E63696E670A00434D443A414C415239
:1027E0004D2C4C4556454C3A322C4D53473A496E88
:1027F00076616C69645F49440A0000005B4C6F6756
:102800005D2053796E632050726F67726573733AFF
:102810002025642F25640D0A000000003C3C205355
:10282000594E435F454E44203E3E20526563763A02
:102830002025642C2050435F53756D3A2025640D8C
:102840000A0000005B537563636573735D20446128
:1028500074616261736520557064617465642053AE
:1028600075636365737366756C6C792E0D0A000071
:102870005B4572726F725D204461746120436F75B5
:102880006E74204D69736D61746368210D0A0000D8
:10289000434D443A414C41524D2C4C4556454C3ADF
:1028A000322C4D53473A53796E635F4D69736D61B6
:1028B0007463685F4572726F720A0000434D443A58
:1028C0005245504F52542C49443A256C6C752C504B
:1028D000523A252E32662C4E4D3A25730A000000DE
:1028E000434D443A414C41524D2C4C4556454C3A8F
:1028F000312C4D53473A4974656D5F4E6F745F4696
:102900006F756E640A000000434D443A414C4152D9
:102910004D2C4D53473A53797374656D5F4275730F
:10292000790A00000038014000100140140C0140F9
:102930005B53797374656D5D204453313842323096
:102940005F496E697420436F6D706C6574652E0D00
:102950000A0000005B53686F705D2053686F7070F1
:10296000696E6720537461727465642E0D0A0000ED
:1029700001F0CAFA30B13C4800683C4908600220C6
:10298000FFF792FC32E04FF40051394801F08DFD21
:1029900000281AD137A002F00BFD4448016844A07A
:1029A00002F006FD0120FFF712FD4FF4487001F020
:1029B000CCF80020FFF70BFD0020FFF775FCFFF7B8
:1029C000C4FC41A001F0B2FB0CE027480068274995
:1029D0000968401A1E2805D30120FFF765FC42A0B4
:1029E00001F0A4FB02E001E000E000BF00BF2DE623
:1029F00010B52020444908600120091F086002200A
:102A0000086001211A48FDF746FF0120FFF7DFFCAF
:102A100010BD38B501218807FFF72DFA002821D015
:102A200001218807FFF738FA0F480068401C0E495B
:102A3000086036480078042800D138BD01F089F9D3
:102A40003349086001F005FD31490871086801F05B
:102A5000AFFE04462E48007922460B4600902DA07A
:102A600002F0A6FC00BFE8E7400000204400002080
:102A7000001001405B53686F705D205061796D6597
:102A80006E7420436F6E6669726D65642E20537795
:102A900069746368696E6720746F2049444C4520EF
:102AA00073746174652E0D0A000000003C00002064
:102AB000434D443A5041595F4F46462C544F544180
:102AC0004C3A25640A00000074342E7478743D2258
:102AD00073686F7070696E672066696E6973686588
:102AE000640D0A220000000074342E7478743D22B4
:102AF00073686F7070696E67206F75742D74696D7F
:102B0000650D0A2200000000140C0140290000207D
:102B1000340000205B53656E736F725D2054656DE9
:102B200070657261747572653A20252E3266204395
:102B30002C2048756D69646974793A2025642025D4
:102B4000250D0A00704700BFFEE700BFFEE700BF8B
:102B5000FEE700BFFEE7704770477047704710B54B
:102B600040F225510A48FFF75BFB38B10848FFF7F0
:102B7000D7FAC4B2204600F07AFC00BF40F22441EC
:102B80000348FFF74DFB10B10148FFF7C9FA10BD2C
:102B90000038014008B501210820FEF789F82020FF
:102BA000ADF8000010208DF8030003208DF802001E
:102BB00069460F48FDF7C0FD0120ADF800006946E9
:102BC0000B48FDF7B9FD0220ADF800006946084842
:102BD000FDF7B2FD20210648FDF75BFE0121044808
:102BE000FDF757FE02210248FDF753FE08BD000025
:102BF000000C014000B587B001210803FEF758F82A
:102C000001210846FEF747F80121C420FEF750F8DD
:102C10001020ADF8040003208DF8060010208DF878
:102C2000070001A9F848FDF787FD2020ADF8040052
:102C300018208DF8070001A9F348FDF77DFD40201D
:102C4000ADF8040001A9F048FDF776FD8020ADF84D
:102C5000040001A9EC48FDF76FFD1021EA48FDF7DB
:102C600018FE0020ADF808004FF48270ADF80A009D
:102C70000020ADF80C000220ADF80E000120ADF8E8
:102C800010004002ADF812000820ADF8140000203A
:102C9000ADF816000720ADF8180002A9DB48FEF7D2
:102CA00091F80121D948FEF732F901220221D748D3
:102CB000FEF755F901221146D448FEF750F907B046
:102CC00000BD2DE9F0438BB080460C4615461E46EC
:102CD000DDE912794046FDF7A5FBCC480C300090A9
:102CE00000200190102F01D1019400E0019502977E
:102CF000039600200490CDF8149006900790089059
:102D00004FF48050099000200A9069464046FDF734
:102D10002BFC01214046FDF752FC0BB0BDE8F083CF
:102D200010B504462146BAA002F042FB002010BDB7
:102D300010B504464FF48050C24908600AE0C1490A
:102D40000868411EBF4A116020B90020FFF7E8FF64
:102D5000C0B210BD0221AD48FEF75DF90028EED0EB
:102D60002146AA48FEF704F94FF48050B54908609F
:102D70000AE0B4490868411EB24A116020B9012036
:102D8000FFF7CEFFC0B2E4E70121A048FEF743F908
:102D90000028EED09D48FEF7EDF8C0B2D9E710B597
:102DA000002410219848FDF776FD0520FFF7C0FFAD
:102DB00000BFFF20FFF7BCFF044604F0010000281D
:102DC000F7D110219048FDF764FD10BD10B510211A
:102DD0008D48FDF760FD0620FFF7AAFF10218A4805
:102DE000FDF757FD10BD10B50446FFF7EFFFFFF7E5
:102DF000D6FF10218448FDF74EFD2020FFF798FFF5
:102E0000C4F30740FFF794FFC4F30720FFF790FFD8
:102E1000E0B2FFF78DFF10217B48FDF73AFDFFF789
:102E2000BEFF10BD10B5FFF7D1FF10217648FDF7AA
:102E300032FDC720FFF77CFF10217348FDF729FD05
:102E4000FFF7ADFF10BD7CB506460C46154605B92B
:102E50007CBDFFF7BBFF10216B48FDF71CFD022076
:102E6000FFF766FFC4F30740FFF762FFC4F30720D4
:102E7000FFF75EFFE0B2FFF75BFFB5F5807F04DD93
:102E80004FF4807570A002F093FA802010212B4639
:102E90000022CDE9001031467848FFF712FF00BF4D
:102EA0004FF40070FDF7A6FB0028F9D04FF4007036
:102EB000FDF7B4FB00217148FDF781FB00BF8021C5
:102EC0005248FEF7A8F80128F9D010214E48FDF726
:102ED000E0FCFFF764FF00BFBAE72DE9F05F0746AB
:102EE0000E4614464FF00008C146C2460025AB46C8
:102EF00006F0FF0ACAF10000C5B22046E11704EB54
:102F00001161C1F30728E11704EB11610912A4EB69
:102F1000012101F0FF09BAF1000F20D1B8F1000F33
:102F200005D1224631463846FFF78DFF64E009E0BF
:102F30004FF4807231463846FFF785FF06F58076FC
:102F400007F58077B8F10000A8F1010101F0FF0852
:102F5000EED14A4631463846FFF775FF4CE0B8F1EE
:102F6000000F18D1A94510DDA9EB050000F0FF0BFB
:102F70002A4631463846FFF766FF2E442F445A460C
:102F800031463846FFF75FFF36E022463146384685
:102F9000FFF759FF30E0601B84B22046E11704EBD5
:102FA0001161C1F30728E11704EB11610912A4EBC9
:102FB000012101F0FF092A4631463846FFF743FF59
:102FC0002E442F4409E04FF4807231463846FFF713
:102FD0003AFF06F5807607F58077B8F10000A8F192
:102FE000010101F0FF08EED1B9F1000F04D04A460B
:102FF00031463846FFF727FFBDE8F09F7CB506460F
:103000000C461546E5BB7CBD000801400030014080
:103010003C3C2D464C4153482D4552524F522D3E7B
:103020003E2053504920E7AD89E5BE85E8B685E6E8
:1030300097B6216572726F72436F6465203D2025DB
:10304000640A0000480000203C3C2D464C41534897
:103050002D4552524F522D3E3E205350495F464C13
:103060004153485F50616765577269746520746F9A
:103070006F206C61726765210A0000003000024019
:10308000FFE710217448FDF706FC0320FFF750FE10
:10309000C4F30740FFF74CFEC4F30720FFF748FED8
:1030A000E0B2FFF745FE802000212B463246CDE9F5
:1030B00000106A48FFF705FE002010212B4602464B
:1030C000CDE90010664965481430FFF7FAFD00BFEE
:1030D0002020FDF78FFA0028FAD02020FDF79EFA75
:1030E0004FF40070FDF79AFA00215C48FDF767FA8B
:1030F00000215A481430FDF762FA10215648FDF7B6
:10310000C8FB00BF7CBD2DE9F0410024002500264E
:10311000002710215048FDF7BEFB9F20FFF708FE57
:10312000FF20FFF705FE0546FF20FFF701FE0646DC
:10313000FF20FFF7FDFD074610214748FDF7A9FBDB
:10314000280440EA062040EA07042046BDE8F08152
:1031500010B5002410214048FDF79DFBAB20FFF780
:10316000E7FDFF20FFF7E4FDFF20FFF7E1FDFF2073
:10317000FFF7DEFDFF20FFF7DBFD04461021364898
:10318000FDF787FB204610BD10B5044610213248DC
:10319000FDF781FB0320FFF7CBFDC4F30740FFF7EA
:1031A000C7FDC4F30720FFF7C3FDE0B2FFF7C0FD82
:1031B00010BD10B5FF20FFF7BBFD10BD10B50446D4
:1031C0004FF480502749086009E026490868411EED
:1031D000244A116018B90220FFF7A2FD10BD022198
:1031E0002148FDF718FF0028EFD021461E48FDF7C3
:1031F000BFFE4FF480501B49086009E01949086878
:10320000411E184A116018B90320FFF789FDE5E750
:1032100001211548FDF7FFFE0028EFD01248FDF709
:10322000A9FEDBE710B510210B48FDF734FBB920F0
:10323000FFF77EFD10210848FDF72BFB10BD10B5F0
:1032400010210548FDF727FBAB20FFF771FD10218A
:103250000148FDF71EFB10BD000801401C000240A4
:103260004C000020480000200030014000B587B02D
:1032700001210420FDF71CFD01218803FDF718FD45
:103280004FF4A060FDF760F825208DF804000120C0
:103290008DF807008DF8050003208DF8060001A8C1
:1032A000FDF757F84FF40070ADF8180018208DF8AE
:1032B0001B0003208DF81A0006A96548FDF73CFAAB
:1032C0004FF48060ADF8180004208DF81B0006A9AB
:1032D0005F48FDF731FA4FF4E13002900020ADF87D
:1032E0000C00ADF80E00ADF81000ADF814000C2085
:1032F000ADF8120002A95748FEF715FE012240F270
:1033000024415448FEF7A7FE01215248FEF797FEDC
:1033100007B000BD70B504460D4629462046FEF7AD
:10332000FBFE00BF80212046FEF764FF0028F9D095
:1033300070BD2DE9F04107460D461646002405E014
:10334000295D3846FFF7E6FF601CC4B2B442F7DBE4
:1033500000BF40213846FEF74DFF0028F9D0BDE8F8
:10336000F08170B506460C46002500BF615D304611
:10337000FFF7D0FF6D1C605D0028F7D100BF402132
:103380003046FEF737FF0028F9D070BD2DE9F04137
:1033900005460C46260AE7B231462846FEF7BCFE33
:1033A00000BF80212846FEF725FF0028F9D03946C6
:1033B0002846FEF7B1FE00BF80212846FEF71AFF1F
:1033C0000028F9D0BDE8F08170B504460D46E1B2A1
:1033D0002048FEF7A1FE00BF80211E48FEF70AFF2D
:1033E0000028F9D0204670BD10B5044600BF20214A
:1033F0001848FEF7FFFE0028F9D01648FEF790FEA9
:1034000010BD00B58BB001210846FDF744FC114802
:10341000001D0090104801900020029041F2883079
:1034200003900020049080200590002006900790D3
:1034300020200890C001099000200A9069460748A2
:10344000FDF792F801210548FDF7B9F80BB000BD72
:10345000000801400038014040130020580002409D
:1034600010B540F28641894801F051F810BD01467F
:10347000864BB3F80034581CC31700EB93539B12D0
:10348000A0EB83239AB28148B0F80204904207D09F
:103490007E48B0F800047D4B19541846A0F800246B
:1034A00070472DE9F04180460E4615461F463146CD
:1034B000404601F037F8044604B3304601F050F8B6
:1034C000044420783A281BD1641C002005E014F83D
:1034D000013B0146421C90B26B5421782C290AD042
:1034E000217841B121780D2905D021780A2902D00F
:1034F000791E8142EBDC0021295401E00020287074
:10350000BDE8F081F8B504460F460CB1207808B943
:103510000020F8BD002000900A226946204601F0F4
:1035200026F805460E460098A04202D00098007882
:1035300008B10020EDE7C7E900560120E9E7F0B542
:1035400091B0044697E05148B0F802044F490D5C31
:10355000B1F80214481CC11700EB91518912A0EB7D
:1035600081214A4AA2F802140A2D71D10021104685
:10357000B0F8842400F20440815400204349A1F8AB
:10358000840443A1464800F0CDFF70B101202070B3
:10359000202301AA43A14248FFF783FF01A800F0BE
:1035A000E8FF6060012011B0F0BD40A13C4800F090
:1035B000B9FF18B302202070202301AA3FA1384888
:1035C000FFF76FFF04F1080101A8FFF79BFF2074CC
:1035D000202301AA3AA13248FFF763FF01A802F0B5
:1035E00099FB064601F0F7F86061302304F11802F8
:1035F00034A12B48FFF755FF0120D4E732A128481A
:1036000000F090FF68B103202070202301AA32A1AE
:103610002348FFF746FF01A800F0ABFF60600120E0
:10362000C1E72EA11E4800F07DFF80B1042020706C
:10363000202301AA21A11A48FFF733FF04F1080152
:1036400001A8FFF75FFF20740120ACE700E011E064
:103650000D2D0FD00D48B0F884047F280ADA0B48EE
:10366000B0F88414B0F88404401C084AA2F884041A
:103670000B48455400BF0548B0F802040349B1F8AF
:10368000001488427FF45FAF00208CE7C82600203A
:10369000434D443A53594E435F53544152540000F2
:1036A000CC2A0020544F54414C000000434D443A72
:1036B00053594E435F4441544100000049440000C7
:1036C000505200004E4D0000434D443A53594E4372
:1036D0005F454E440000000053554D00434D443AB1
:1036E0005343414E000000001FB5FFF783FA10223C
:1036F00000216846FFF782FC0398B0F1A53F08D18E
:103700008549009808600846016884A001F050FED1
:1037100005E00020804908608AA001F049FE92A0DF
:1037200001F046FE91A001F043FE9CA001F040FE96
:10373000A6A001F03DFE8DA001F03AFEFFF7E3FCEC
:1037400004462146ADA001F033FE1FBD10B5B4A064
:1037500001F02EFE0020FFF746FB002406E04FF4A8
:10376000805101EB0430FFF73EFB641C142CF6D3B0
:10377000002069490860B2A001F01AFE10BD1FB513
:10378000044600944FF4807002904FF0A5300390EF
:10379000102200216846FFF7A0FB5F480460214625
:1037A000ADA001F005FE1FBD2DE9F04391B0044628
:1037B00015461E46DDE91878CDE9005602974FF010
:1037C000A5300F90302103A800F0A1FE2F22414622
:1037D00003A800F0B9FE4FF4805000EB841940229A
:1037E00049466846FFF779FB11B0BDE8F08370B534
:1037F00004460D464FF4805000EB841640223146BB
:103800002846FFF7FBFBE86BB0F1A53F01D1012093
:1038100070BD0020FCE72DE9FC4106460F46154629
:103820003D48006810B90020BDE8FC8100241AE082
:103830004FF4805000EB8418082241466846FFF799
:10384000DDFBDDE900017040794008430AD14022E8
:1038500041462846FFF7D2FBE86BB0F1A53F01D106
:103860000120E1E7641C2C4800688442E0D300207A
:10387000DAE770B590B006460D460025002412E048
:1038800069462046FFF7B3FF38B106EB84104022AB
:10389000694600F023FE6D1C04E01F480068844266
:1038A00000D902E0641CAC42EAD300BF10B070BD86
:1038B0002DE9F04395B072A001F07AFD164800683A
:1038C00010B11548006800E06420814600241AE029
:1038D00004A92046FFF78BFF78B1069800F068FF37
:1038E000054607A8CDE900510290DDE904733A4688
:1038F00021466AA001F05CFD04E0074800688442AC
:1039000000D902E0641C4C45E2D300BF6CA001F07A
:103910004FFD15B0BDE8F083500000205B50726F82
:10392000647563745D20444220496E69742E20548E
:103930006F74616C204974656D733A2025640D0ABB
:10394000000000005B50726F647563745D20444238
:1039500020456D707479206F7220496E76616C69B4
:10396000642E0D0A000000000D0A00003D3D3D3DA3
:103970003D3D3D3D3D3D3D3D3D3D3D3D3D3D3D3D77
:103980003D3D3D3D3D3D3D3D3D3D3D3D3D3D3D3D67
:103990003D3D3D3D3D3D3D3D0D0A00002020205375
:1039A000544D333220536D617274205375706572BB
:1039B0006D61726B65742053797374656D20563335
:1039C0002E302020202020200D0A0000202020530F
:1039D000504920466C617368204461746162617370
:1039E00065204C6F616465642E20202020202020FB
:1039F00020202020202020200D0A00004861726431
:103A00007761726520436865636B3A20466C617329
:103A100068204944203D20307825580D0A000000D8
:103A20005B50726F647563745D2045726173696E7B
:103A3000672044617461626173652E2E2E0D0A0049
:103A40005B50726F647563745D20457261736520AD
:103A5000446F6E652E0D0A005B50726F647563745F
:103A60005D204D657461646174612055706461749A
:103A700065642E20546F74616C3A2025640D0A0031
:103A80000D0A2D2D2D2050726F64756374204475BE
:103A90006D70202D2D2D0D0A000000005B25645D4A
:103AA0002049443A256C6C752C2050726963653A44
:103AB000252E32662C204E616D653A25730D0A0065
:103AC0002D2D2D20456E64202D2D2D0D0A0000007A
:103AD00010B56FF00400FCF786FC2E4800682E49F4
:103AE000B0FBF1F02D4908700846007800EB40016A
:103AF000C1EBC0104FF6FF7101EAC00028490880F1
:103B000010BD0146254A12784A434FF0E0235A611E
:103B100000229A611A46126942F001021A6100BF3E
:103B20004FF0E022106900F001021AB100F4803277
:103B3000002AF5D04FF0E022126922F001024FF086
:103B4000E0231A6100229A6170470146144A1288E4
:103B50004A434FF0E0235A6100229A611A461269E3
:103B600042F001021A6100BF4FF0E022106900F03C
:103B700001021AB100F48032002AF5D04FF0E022A1
:103B8000126922F001024FF0E0231A6100229A61CB
:103B9000704700000000002000127A00540000204E
:103BA0005600002008B54FF48070ADF800004820A2
:103BB0008DF8030069468548FCF7BEFD08BD08B5D1
:103BC0004FF48070ADF8000003208DF80200102043
:103BD0008DF8030069467D48FCF7AEFD08BD10B5C1
:103BE000FFF7EDFF00207A49086040F2EE20FFF772
:103BF00088FF01207749C1F8A0010F20FFF781FF5E
:103C000010BD10B50024FFF7CDFF04E0601CC4B266
:103C10000120FFF776FF6E488038006808B1C82C95
:103C2000F4DBC82C01DB012010BD002404E0601C83
:103C3000C4B20120FFF765FF65488038006808B905
:103C4000F02CF4DBF02C01DB0120EDE70020EBE7AA
:103C500010B5FFF7B4FF00205D4908600220FFF7B0
:103C600050FF01205B49C1F8A001FFF79BFF0C202A
:103C7000FFF747FF56488038006808B1012400E08C
:103C800000243220FFF73DFF204610BD70B500260E
:103C9000012508E0FFF7DCFF0446E00140EA66008A
:103CA000C6B2681CC5B2082DF4DD304670BD70B5D3
:103CB0000446FFF784FF012520E004F001066410AC
:103CC0006EB10020424908600220FFF71AFF012070
:103CD0004049C1F8A0013C20FFF713FF0CE0002091
:103CE0003B4908603C20FFF70CFF01203949C1F82F
:103CF000A0010220FFF705FF681CC5B2082DDCDD1E
:103D000070BD10B5FFF76BFFFFF77BFFCC20FFF70F
:103D1000CEFF4420FFF7CBFF10BD08B501210820DE
:103D2000FCF7C6FF01212C48FCF7D7FD4FF480704B
:103D3000ADF8000003208DF8020010208DF803007C
:103D400069462248FCF7F8FCFFF749FFFFF759FFE7
:103D500008BD2DE9F05FFFF7D4FFFFF740FFFFF745
:103D600050FFCC20FFF7A3FFBE20FFF7A0FFFFF717
:103D70008DFF8346FFF78AFF824654460BEB0420F3
:103D800084B204F47840B0F5784F0FD1E043401C82
:103D900084B2204600F0FFFC074600220F4B00F0E3
:103DA0007FFC054600F017FD81460BE0204600F041
:103DB000F2FC054600220A4B00F072FC074600F0B8
:103DC0000AFD81464846BDE8F09F0000000C014016
:103DD000A081214200802142000430000000B0BFD9
:103DE0000000B03F10B50246422900DD10BD4F482B
:103DF0000160002018E000EBC00302EBC3030C33AA
:103E00004B4C44F8203000EBC00302EBC3039B682B
:103E1000484C44F8203000EBC00302EBC3031B6C9A
:103E2000454C44F82030401C404B1B689842E2DB74
:103E300000BFDBE710B500F0BEF94FF4E13000F051
:103E4000FDF810BD10B500F00CFA00280BDD0020C5
:103E500000F0F7F90446012000F0CEF9012C01D161
:103E6000012010BD00BF0020FBE72DE9F84F33A073
:103E700000F05CF92E4D2F4EDFF8BC902B48D0F8A7
:103E800000A0002416E056F8240000F091FC07463C
:103E90000B4659F82400009055F824103A462AA001
:103EA00000F044F9002000E0401C41F288318842D3
:103EB000FADB641C5445E6DBBDE8F88F2DE9F047DA
:103EC00000251C4E1C4F1948D0F800A000240EE01D
:103ED00057F8240000F056FC814656F8241000F0F4
:103EE000ADFB8046294600F051FB0546641C544555
:103EF000EEDB284600F05CFC804642460B4619A0EB
:103F000000F014F9BDE8F08710B500F0AAF9002818
:103F10000ADD002000F095F90446012000F06CF95C
:103F2000022C01D1012010BD0020FCE75800002028
:103F3000502B0020582C0020602D002074312E744E
:103F400078743D222200000074312E7478742B3D69
:103F5000222537732C2530372E32662C25303764D6
:103F60000D0A220074332E7478742B3D22252E32D4
:103F70006622000010B586B00446012144F2050017
:103F8000FCF796FE05A8FCF762FC4FF40070ADF854
:103F9000140018208DF8170003208DF8160005A9CD
:103FA000C048FCF7C9FB05A8FCF751FC4FF4806042
:103FB000ADF8140004208DF8170005A9B948FCF7E6
:103FC000BBFB01218803FCF773FEB748FDF768FFD0
:103FD00001A8FEF711F801940020ADF80800ADF833
:103FE0000A00ADF80C000C20ADF80E000020ADF872
:103FF000100001A9AC48FDF796FF2021AA48FEF762
:1040000006F91021A848FEF702F9012240F22551D5
:10401000A548FEF720F80121A348FEF710F8252057
:104020008DF8000001208DF801008DF802008DF858
:1040300003006846FCF78DF906B010BD10B586B0D8
:10404000044601210520FCF733FE05A8FCF7FFFB21
:104050000420ADF8140018208DF8170003208DF807
:10406000160005A98F48FCF767FB05A8FCF7EFFBD6
:104070000820ADF8140004208DF8170005A9894820
:10408000FCF75AFB01214804FCF71FFE8748FDF7A7
:1040900007FF01A8FDF7B0FF01940020ADF808006C
:1040A000ADF80A00ADF80C000C20ADF80E000020B1
:1040B000ADF8100001A97D48FDF735FF20217B48B0
:1040C000FEF7A5F810217948FEF7A1F8012240F289
:1040D00025517648FDF7BFFF01217448FDF7AFFF7A
:1040E00026208DF8000000208DF8010001208DF8B9
:1040F00002008DF803006846FCF72BF906B010BDEE
:1041000070B504460D460BE014F8011B6748FEF736
:1041100003F800BF80216548FEF76CF80028F9D04D
:10412000281EA5F101018DB2EED170BD0FB470B59E
:104130009CB0FF2521A80190652102A8019B209A2F
:1041400001F046F906460020019000240CE002A888
:10415000015D5648FDF7E0FF00BF80215348FEF7A0
:1041600049F80028F9D0641CB442F0DB29464F48D6
:10417000FDF7D2FF00BF80214C48FEF73BF8002836
:10418000F9D029464948FDF7C7FF00BF80214748BD
:10419000FEF730F80028F9D029464448FDF7BCFF67
:1041A00000BF80214148FEF725F80028F9D01CB057
:1041B00070BC5DF814FB00203D4908804880888071
:1041C00070473B498988B1F5FA7F00DB7047384971
:1041D0004A88891D8854891F4988491C4FF4FA72FE
:1041E00091FBF2F302FB1311314A51801146898889
:1041F000491C918000BFE9E710B502462C48808831
:10420000904202DCFFF7D7FF10BD002315E02848DD
:10421000808810B9FFF7CFFFF6E725480088401CDB
:104220004FF4FA7190FBF1F401FB1400204908806F
:1042300008468088401E88805B1C9342E7DB00BFF5
:10424000E2E710B501461A48008808444FF4FA73B3
:1042500090FBF3F403FB140082B21548801D805CD0
:1042600010BD13488088704711488088B0F5FA7FE8
:1042700001D1012070470020FCE710B540F2255124
:104280000A48FDF7CDFF01280BD10848FDF748FF8C
:10429000C4B22046FFF795FF40F225510348FDF7D1
:1042A000E9FF10BD00080140003801400044004013
:1042B000682E002008B54FF48050ADF800001020A3
:1042C0008DF8030003208DF8020069466848FCF76A
:1042D00033FA08BD08B54FF48050ADF80000042053
:1042E0008DF8030069466248FCF726FA08BD10B550
:1042F000FFF7E0FF4FF480515D48FCF7CCFA142043
:10430000FFF723FC4FF480515948FCF7C2FA1E20F6
:10431000FFF7F7FB10BD10B50024FFF7DBFF04E04B
:10432000601CC4B20120FFF7ECFB4FF480515048F1
:10433000FCF795FA012801D1642CF1DB642C01DB38
:10434000012010BD002404E0601CC4B20120FFF76E
:10435000D8FB4FF480514648FCF781FA08B9642C29
:10436000F2DB642C01DB0120EBE70020E9E710B56C
:1043700001210820FCF79CFCFFF7B9FFFFF7CBFFFA
:1043800010BD10B5002404E0601CC4B20120FFF78A
:10439000B8FB4FF480513648FCF761FA012801D18F
:1043A000642CF1DB002404E0601CC4B20120FFF7A0
:1043B000A8FB4FF480512E48FCF751FA08B9642C41
:1043C000F2DB2820FFF79DFB4FF480512848FCF7D3
:1043D00046FA012800D110BD0020FCE770B500248A
:1043E000002506E06006040EFFF7CBFF0443681CBF
:1043F000C5B2082DF6DB204670BD7CB505460E46DD
:10440000FFF775FFFFF787FFF8B9002405E0FFF716
:10441000E5FF0DF80400601CC4B2052CF7DB9DF825
:1044200000009DF8011008449DF8021008449DF812
:10443000031008449DF80410884208D19DF800003C
:1044400030709DF80200287001E001207CBD002042
:10445000FCE71CB500200190009001A96846FFF719
:10446000CCFF10B99DF804001CBD0020FCE7000043
:10447000000C014008B501211420FCF719FC0120B3
:10448000ADF8000004208DF8030069461148FCF7E0
:1044900053F94FF40050ADF8000004208DF80300EC
:1044A00069460D48FCF748F908BD70B504460D464D
:1044B00029462046FCF7D3F9012808D100BF294638
:1044C0002046FCF7CCF90128F9D0012070BD00206E
:1044D000FCE70000000801400010014040EA010331
:1044E0009B0703D009E008C9121F08C0042AFAD2AA
:1044F00003E011F8013B00F8013B521EF9D270476E
:10450000D2B201E000F8012B491EFBD27047002215
:10451000F6E710B513460A4604461946FFF7F0FFC2
:10452000204610BD30B505462A460B4612F8010B51
:1045300013F8014B08B1A042F8D01CB1002802D0FA
:104540006D1CF1E7284630BD10B5044604E00B7839
:1045500000F8013B03B1491C521EF8D2204610BDA1
:10456000421C10F8011B0029FBD1801A704700F093
:104570001BBA70B5064600F041FF046805460A22E2
:104580000021304600F0D8F92C6070BDF0B480EA0C
:104590000102D40F4200B2EB410F02D2024608469C
:1045A00011464A0042D0C30DDDB2C1F3C752AD1A65
:1045B000202D35DAC1F3160141F4000204B1524254
:1045C000C5F1200602FA06F12A411044B3EBD05F90
:1045D00023D0C4B1012DA0EBC35009DCF0BC4FF0D7
:1045E000004202EAC352DBB200F5000000F023BA39
:1045F000400000F1807000EBC350A0F1807040EAF1
:10460000D170490009E0490841EAC071A0EBC350EC
:1046100000F50000400800EBC350F0BC00F002BA07
:104620006142012202EB4101001BF6E7F0BC70473A
:1046300081F00041AAE780F00040A7E780EA01028C
:1046400010B502F00043400022D04A001FD0010EF6
:1046500001EB1261C0F35600C2F3560240F40000B1
:1046600042F40002A0FB022000047F39140400D0B1
:10467000401C50EA124001D44000491EC2B20C0650
:1046800004EBD010401C4008802A02D003E0002038
:1046900010BD20F00100002900DA0020184310BDF1
:1046A0002DE9FE4F81EA030404F0004421F00041AB
:1046B00000944FF0000B23F0004350EA01045ED059
:1046C00052EA03045BD0C3F30A54C1F30A552C44E5
:1046D000A4F2F3340194A0FB0254C1F3130141F49A
:1046E0008011C3F3130343F4801301FB024400FB66
:1046F000034E840A970A44EA815447EA8357A4FB8D
:10470000076802958D0A05FB07854FEA932C04FB89
:104710000C542705029D4FEA065847EA1637B5EBB9
:1047200008056EEB070C870E920E47EA811742EAE6
:104730008312A7FB0201B6EB0B0164EB00042B0D07
:1047400043EA0C335E1844EB1C50DA465146E7FB53
:104750000201C5F313044FEA0B3343EA14534FEA43
:104760000432019C43EA0603A4F10C040294009C69
:10477000CDE900B400F09CF903B0BDE8F08F002053
:104780000146F9E7C10F80EAE0700844CA079623A2
:10479000002100F050B90EB540F2334102910021E2
:1047A000CDE900110A460B4600F082F903B000BDC6
:1047B00000F0004230F000400AD0C10D01F56071F8
:1047C000C0F3160042EA0151C20840071143704786
:1047D00000200146704701F0004330B421F0004151
:1047E00050EA010206D00A0DA2F56072C1F313016E
:1047F000002A02DC30BC00207047440F44EAC104A8
:10480000C100E01830BC00EBC25000F00BB930B56D
:104810000B46014600202022012409E021FA02F57E
:104820009D4205D303FA02F5491B04FA02F5284418
:10483000151EA2F10102F1DC30BD2DE9F05F054645
:10484000002092469B4688460646814640241BE04F
:10485000284641464746224600F0DFFA53465A466C
:10486000C01A914110D311461846224600F0C6FAEC
:104870002D1A67EB01084F4622460120002100F067
:10488000BDFA17EB00094E41201EA4F10104DFDC44
:10489000484631462A464346BDE8F09F0FB4002300
:1048A00000B589B00CA900910B996FF00042CB6064
:1048B0001E4B06931E4B07930423CDE901321D4A7C
:1048C000089202466B46002000F06CFB09B05DF8D0
:1048D00014FB70B586B006464FF0FF300091CDE96D
:1048E0000101002015460C4604903246694604A892
:1048F000FFF7D4FF02460498211825B108B10846F5
:1049000000E020462860049800280DD0002A02DD2F
:104910000098884208D0081B0094CDE90104324673
:10492000694604A8FFF7BAFF06B070BDDD51000864
:10493000FB510008694E00082DE9F04791460F46EB
:1049400080460446002614F8015B2DB100F088FA79
:104950000068405DC007F6D12B2D02D02D2D18D058
:10496000641E4A463946204600F058FC27B1396893
:10497000A14201D1C7F8008071054FF002040BD5A8
:104980004042002803DD00F039FD0460A007BDE8C7
:10499000F08746F48066E4E70028F8DA00F02EFDA0
:1049A00004606FF00040F2E72DE9F05F93460F4698
:1049B00080460446002600F021FDD0F80090824693
:1049C00014F8015B2DB100F04BFA0068405DC007A0
:1049D000F6D12B2D02D02D2D1FD0641E0021CAF838
:1049E00000105A463946204600F067FC024627B1BF
:1049F0003868A04201D1C7F80080DAF80000022828
:104A00000ED0CAF8009070050AD500200346D2EBFC
:104A1000000063EB0101BDE8F09F46F48066DDE72E
:104A20001046F8E70029A8BF7047401C490008BF9E
:104A300020F00100704710B4B0FA80FC00FA0CF0CE
:104A400050EA010404BF10BC704749B1CCF1200406
:104A500021FA04F411FA0CF118BF01212143084393
:104A6000A3EB0C01CB1D4FEA00614FEA102042BFBF
:104A7000002010BC704700EBC35010440029A4BFB5
:104A800010BC7047401C490008BF20F0010010BC5A
:104A9000704710B5141E73F1000408DA401C41F190
:104AA000000192185B411A4301D120F0010010BDB2
:104AB0002DE9F04D92469B4611B1B1FA81F202E028
:104AC000B0FA80F22032904600F098F904460F4682
:104AD00040EA0A0041EA0B0153465A46084313D004
:104AE000114653EA010019D0C8F14002504600F0C7
:104AF00094F905460E4650465946424600F07EF966
:104B0000084305D0012004E020463946BDE8F08D79
:104B10000020054346EAE0762C4337430A986305B4
:104B2000E40AA0EB08000022FD0A44EA47540A30D8
:104B300002D500200146E9E7010510196941DDE9C8
:104B4000084500196941BDE8F04DA2E72DE9FE4F87
:104B5000804681EA0300C00F0C46009021F000411E
:104B600023F00045B8EB0200A94105D2404621469A
:104B700090461C460B46024623F00040104347D0A7
:104B8000270DC7F30A00C3F30A510290401A01909F
:104B900040286BDAC3F3130040F4801B0098924660
:104BA00020B10023D2EB030A63EB0B0B01985946AB
:104BB000C0F14002504600F021F906460D4650462D
:104BC0005946019A00F039F910EB080061410024C0
:104BD00087EA115284EAE7731A4340D0009A62B31D
:104BE000019A012A4FEA075215DC001B61EB020112
:104BF0004FF0004202EA0752CDE90042001C41F5A5
:104C0000801132462B46FFF753FF03B0BDE8F08F0B
:104C100040462146F9E7001B61EB0201001C41F50B
:104C2000801300185B412018A2F5001747EB030121
:104C300040EAD570B6196D4111E06D084FEA3606AD
:104C400045EAC0754FEA0752001B61EB0201001CE8
:104C500041F5801149084FEA3000001951413246B0
:104C60002B4603B0BDE8F04FFFF713BF00980122B9
:104C700040000023D0EB020263EBE0730098214672
:104C80004FEAE074B8EB000061EB0401E9E783F060
:104C900000435BE781F0004158E72DE9F04D81EAE0
:104CA000030404F0004B21F0004514464FF0000AC5
:104CB00023F0004150EA050220D054EA01021DD041
:104CC000C5F30A570246C5F31303C1F31300C1F33A
:104CD0000A5640F4801543F48013A7EB0608101B16
:104CE000D64608F2FD3873EB050002D308F101083F
:104CF00001E092185B41B8F1000F03DA0020014691
:104D0000BDE8F08D00204FF48011064684460EE089
:104D1000171B73EB050705D3121B63EB0503064353
:104D20004CEA010C49084FEA300092185B4150EA06
:104D30000107EDD152EA030012D082EA040083EAAF
:104D40000501084305D0101BAB4106D20122002308
:104D500006E000224FF0004302E06FF00102531022
:104D60001AEB06004CEB085110EB0A0041EB0B016B
:104D7000BDE8F04DFFF78DBEC1F30A52C1F3130138
:104D800040F2FF3341F480119A4202DA00200146DA
:104D9000704740F233439A42A2F2334202DC52425D
:104DA00000F03BB800F02AB830B5041E71F10004E1
:104DB00004DB4FF00044404264EB0101141E73F128
:104DC000000405DB1C464FF00043524263EB040332
:104DD000994208BF904230BD064C074D06E0E0689E
:104DE00040F0010394E8070098471034AC42F6D332
:104DF000FBF7A2F9C45D0008E45D0008202A04DB8B
:104E0000203A00FA02F1002070479140C2F12003DD
:104E100020FA03F3194390407047202A04DB203A1C
:104E200021FA02F00021704721FA02F3D040C2F1CA
:104E300020029140084319467047202A06DBCB1711
:104E4000203A41FA02F043EAE07306E041FA02F345
:104E5000D040C2F12002914008431946704700003B
:104E600000487047C05D000810B50446FFF7F8FF22
:104E70000068005D00F0010010BD00002DE9FF4F4B
:104E8000087883B09946FF2805D0491C2D2804D006
:104E90000024002008E000200BE00124F9E700EBEB
:104EA000800003EB4000491C0B78FF2BF7D104B1C5
:104EB000404200230293147819461D462D2C01D040
:104EC0002B2C04D1521C2D2C13D000240294AA4662
:104ED0001478FF2C0FD00A25A3FB057801FB058170
:104EE0004FF0000C03FB0C11521CE3194AEB0101BB
:104EF000EEE70124EAE7814453EA010002D019F504
:104F0000C87F06DA03980021C0E9001107B0BDE8A8
:104F1000F08F0025AE4E2F46DFF8B882184600F01D
:104F20003BFACDE90001B9F1000002DAC9F1000451
:104F300000E004460023A74A1AEB030B42EB045A95
:104F400012E0E00707D02A46334638464146FFF7CD
:104F5000A7FB074688462A46334610461946FFF700
:104F60009FFB05460E466410002CEAD1DDE90001E6
:104F7000B9F1000F5A46534606DAFFF78EFE3A465D
:104F80004346FFF78AFE05E0FFF78AFB3A464346B1
:104F9000FFF786FB029A0AB181F00041039AC2E949
:104FA0000001B3E72DE9FF4F1F468DB0D7E9014659
:104FB0004FF0FF382E2045464FF000090B90B9699D
:104FC0006D1C0E988847396A824688470028F6D1BA
:104FD000BAF1FF3F0AD024F4D064002E11DDBAF1FB
:104FE0002B0F08D0BAF12D0F0BD102E0404611B0C3
:104FF0008DE744F48064B9696D1C0E988847824639
:10500000761E6946600501D52D2000E02B208DF825
:10501000000001F1010B0DF1200809E0B9696D1CD8
:105020000E98884782460F9844F40074761E0560F7
:10503000002E02DDBAF1300FF0D00B998A453ED137
:1050400044F0800406E00F99681CA9F1010944F4BA
:1050500000740860B9696D1C761E0E9888478246F8
:105060003028F0D02BE00B998A4505D1200603D4D7
:1050700044F08004761E18E0504600F0A1FA08B310
:105080000DF11301761E44F400748B4508D2AAF189
:1050900030000BF8010B200607D5A9F1010003E051
:1050A000200602D409F101008146A00502D50F991E
:1050B000681C0860B9696D1C0E9888478246002EEE
:1050C000D1DC53E0002E51DDBAF1650F02D0BAF108
:1050D000450F4BD1A00549D5B9696D1C24F4407426
:1050E000761E0E9888478246002E0CDD2B2804D0B1
:1050F000BAF12D0F07D144F48074B9696D1C0E9874
:1051000088478246761EE00501D52D2100E02B213F
:1051100008F8011BCDF82C8021E00DF12901761E45
:1051200044F4007488450CD2AAF1300010F0FF005E
:1051300088F8000002D10B99884509D908F10108C7
:1051400006E0E00501D5244801E042F20F708146F7
:10515000B9696D1C0E98884782460F980560002E2D
:1051600004DD504600F02CFA0028D6D1F9690E98DB
:105170008847FF208BF8000088F800000020069088
:1051800007904B466A4608A906A8FFF777FEA005D8
:1051900002D46FF001002AE714F0240F0AD0E007D0
:1051A00014D1DDE906123868031D3B600068C0E9D0
:1051B00000120BE0DDE90601FFF70DFB0146E007F9
:1051C00004D13868021D3A600068016028460EE785
:1051D000000014400000F03FF1D8FFFF426842B1E8
:1051E000016811F8013B23B1521EC0E900121846B4
:1051F00070470121C160881E704742685AB1C36878
:10520000016843B983688B4205D0491E521CC0E92E
:105210000012002070474FF0FF3070472DE9F05F1B
:1052200082460078002715468B460AF10104B946EC
:10523000302801D09DB113E014F8010B0127782824
:1052400003D0582801D045B10AE00DB1102D07D187
:105250000027102514F8010B02E0082500E00A25BC
:105260000026B0460EE005FB080005FB06F101270D
:1052700001EB10461FFA80F8B6F5803F00D3B9461F
:1052800014F8010B294600F079F80028EBDABBF19D
:10529000000F05D00FB1641E00E05446CBF800406B
:1052A000B9F1000F06D000F0A9F802210160C81E74
:1052B000BDE8F09F48EA0640FAE72DE9F74F4FF0C6
:1052C0000009009C1546CA4614F8010B302801D08D
:1052D000ADB115E014F8010B4FF00109782803D0A7
:1052E000582801D04DB10BE00DB1102D08D14FF071
:1052F0000009102514F8010B02E0082500E00A253A
:1053000000273E46B8464FEAE57B16E0A5FB07239B
:105310000BFB073105FB080005FB0616030CD7182D
:1053200046F100061FFA80F8381E4FF0010976F5A5
:10533000803000D3CA4614F8010B294600F01EF84D
:105340000028E3DA019838B1B9F1000F01D0641EEA
:1053500000E0009C01980460BAF1000F08D000F052
:105360004DF802210160C81E014603B0BDE8F08F70
:10537000310441EA174148EA0740F6E73A2800D2EB
:10538000303820F02002412A01D3A2F137008842B0
:1053900001D34FF0FF3070470EB540F23342029216
:1053A0000022CDE900221346FFF782FB03B000BDC7
:1053B0000FB4054B10B503A9044A029800F008F990
:1053C00010BC5DF814FB0000C93300085C0000202D
:1053D0007CB5044600201D46164600290BD0491E08
:1053E000CDE90041044B6A462946304600F0F0F80A
:1053F000009A002111707CBDFF5C000800487047D6
:105400006000002001480068704700006000002034
:1054100002E008C8121F08C1002AFAD1704770477D
:10542000002001E001C1121F002AFBD170470000DB
:105430000149086070470000600000202DE9FF5F0F
:1054400082B00021DDE90430020DDDF840B00343F5
:1054500018D044F61050A2F2FF32424315141198AE
:1054600001281FD0A5EB0B00401C5FEA000A4FF09B
:1054700000064E4FDFF83891B046504615D5CAF1B8
:10548000000413E0119801244AA3012801D16FEA16
:105490000B010298119AC0E90031C0E9024206B03E
:1054A000BDE8F09FCBF10000DFE704460021404A51
:1054B000491842EB0450CDE9001012E0E00707D094
:1054C00032463B4640464946FFF7EAF88046894661
:1054D00032463B4610461946FFF7E2F806460F46AD
:1054E0006410002CEAD1DDE90401DDE90023BAF102
:1054F000000F06DAFFF7D4F842464B46FFF7D0F824
:1055000005E0FFF7CAFB42464B46FFF7C6FB0446E1
:105510000E460022284BFFF747FC03D84FF0FF3020
:10552000014607E00022254B20463146FFF70EFBDF
:10553000FFF722FC102409E0002C0ADB0A220023DA
:10554000FFF77BF9039B30321A55641E50EA0102C3
:10555000F2D1641C039AC4F111031444119A012A74
:1055600003D0012208430DD10AE0084304D00020F3
:105570004FF0110B119072E7A3EB0B056D1E0DE0C0
:105580005B4504DD4FF0000205F1010504E003DA9C
:105590004FF00002A5F10105002AECD00298119904
:1055A000C0E90231C0E9004579E70000000014407D
:1055B0000000F03F300000000000F0430000E03F3A
:1055C00030380A2801D201207047002070470000BF
:1055D0002DE9FF4F95B09B468946064600250FE210
:1055E000252877D100242746F84A0121059400E0B8
:1055F000044316F8013F203B01FA03F01042F7D1B3
:1056000030782A2811D06FF02F033078A0F13002C3
:10561000092A16D8059A44F0020402EB820203EB31
:1056200042021044761C0590EFE759F8042B0592CE
:10563000002A03DA504244F40054059044F0020476
:10564000761C30782E2816D116F8010F44F0040489
:105650002A280DD06FF02F023078A0F13003092BEB
:1056600009D807EB870302EB4303C718761CF3E75F
:1056700059F8047B761C30786C280FD006DC4C2857
:1056800017D068280DD06A2814D104E0742810D0EF
:105690007A280FD10DE044F400140AE044F4801499
:1056A00001E044F440147278824202D104F580147F
:1056B000761C761C307866280BD013DC582877D0FF
:1056C00009DC002875D04528F6D04628F4D04728B4
:1056D0001AD19DE118E0632835D0642879D0652877
:1056E00012D195E1702873D008DC6728F1D06928C1
:1056F0006FD06E280DD06F2806D1B5E073282CD05E
:10570000752875D0782874D05A46179990476D1C23
:1057100075E1C4F30250022809D003280DD0D9F84E
:10572000001004280DD00D6009F1040967E1D9F8D3
:105730000010EA17C1E90052F6E7D9F800100D8011
:10574000F2E70D70F0E719F8041B8DF80010002047
:105750008DF80100EA46012003E059F804AB4FF050
:10576000FF3061074FF0000102D40DE008F10101A4
:105770008846B9420FDA8045F8DB1AF8081000298C
:10578000F4D108E008F1010188468142FADB1AF8F9
:1057900008100029F6D105985B46A0EB08072146C2
:1057A0003846179A00F094FA284400EB080507E001
:1057B0004DE029E10DE01AF8010B5A461799904780
:1057C000B8F10108F7D25B4621463846179A13E133
:1057D00042E00A220092C4F302524FF0000A022A69
:1057E00008D059F804CB032A4FEAEC710AD00DE037
:1057F00029E02AE009F1070121F00702F2E802C1DD
:10580000914609E00FFA8CFC4FEAEC71042A03D1AF
:105810004FFA8CFC4FEAEC71002907DA0A460021A6
:10582000DCF1000C61EB02012D2202E0220504D51F
:105830002B228DF80420012203E0E20701D0202270
:10584000F7E7904659E00A2102E010220DE010210E
:105850004FF0000A00910BE010224FF0000A44F0D4
:1058600004040827009203E008224FF0000A009287
:10587000C4F30252022A05D059F804CB0021032AAE
:1058800008D009E009F1070121F00702F2E802C19E
:10589000914605E01FFA8CFC042A01D10CF0FF0CA4
:1058A0004FF00008220728D5702806D0009B83F00F
:1058B000100353EA0A0305D00EE040228DF80420BD
:1058C000012208E05CEA010206D030228DF80420B3
:1058D0008DF8050002229046009B83F0080353EAEE
:1058E0000A030AD15CEA010201D1620705D5302220
:1058F0008DF804204FF001087F1E582804D034A0F2
:1059000003900EA802900DE036A0F9E753466046DA
:10591000009AFEF792FF84460398825C0298401E2C
:10592000029002705CEA0100F0D1029806A9081A00
:1059300000F1200A600702D524F4803400E001273A
:10594000574502DDA7EB0A0000E0002000EB0A014A
:10595000009005984144401A0590E00306D45B4648
:105960002146179A059800F0B3F90544002706E090
:1059700001A85A46C05D179990476D1C7F1C47458A
:10598000F6DBE0030CD55B462146179A059800F03C
:105990009FF9054404E030205A46179990476D1C42
:1059A0000099481E00900029F5DC08E00298029951
:1059B0005A460078491C0291179990476D1CBAF11C
:1059C0000001AAF1010AF1DC65E1000009280100EB
:1059D0003031323334353637383961626364656665
:1059E0000000000030313233343536373839414227
:1059F000434445460000000000F058F90544761C79
:105A0000307800287FF4ECAD19B02846BDE8F08F5F
:105A1000620700D4062709F1070222F0070CFCE810
:105A20000223E14603F000485FEA080C02D00FF2BF
:105A3000702C0DE05FEA045C02D50FF2682C07E0E1
:105A40005FEAC47C02D00FF2602C01E0AFF2700C70
:105A50004FF0FF3823F00043CDF850C065280CD03C
:105A600006DC452809D046281DD047283DD13DE019
:105A7000662818D067287ED138E00021112F01DB7D
:105A8000112000E0781CCDE9000106A90EA8FFF75F
:105A9000D5FCDDE90F010E9A03910021009207F178
:105AA000010A04914DE04FF000400097CDE901104C
:105AB00006A90EA8FFF7C2FCDDE90F0203920E9BB8
:105AC00011990022DDF80CA00093049211B9791C01
:105AD00000EB010AB7EB0A0004D4C0F1FF3007F174
