:020000040800F2
:100000005033002045010008C5290008C729000811
:10001000CB290008CF290008D329000800000000E0
:10002000000000000000000000000000D7290008C8
:10003000D929000800000000DB290008DD2900089C
:100040005F0100085F0100085F0100085F01000810
:100050005F0100085F0100085F0100085F01000800
:100060005F0100085F0100085F0100085F010008F0
:100070005F0100085F0100085F0100085F010008E0
:100080005F0100085F0100085F0100085F010008D0
:100090005F0100085F0100085F0100085F010008C0
:1000A0005F0100085F0100085F0100085F010008B0
:1000B000032900085F0100085F0100085F010008D4
:1000C0005F0100085F0100085F0100085F01000890
:1000D0005F010008DF290008AB4000085F0100084D
:1000E0005F0100085F0100085F0100085F01000870
:1000F0005F0100085F0100085F0100085F01000860
:100100005F0100085F0100085F0100085F0100084F
:100110005F0100085F0100085F0100085F0100083F
:100120005F0100085F0100085F0100085F0100082F
:10013000DFF80CD004F01AFD0048004765250008E0
:10014000503300200648804706480047FEE7FEE798
:10015000FEE7FEE7FEE7FEE7FEE7FEE7FEE7FEE777
:1001600047020008310100080CB500200190009002
:100170006C48006840F480306A49086000BF6948F4
:10018000006800F4003000900198401C0190009835
:1001900018B90198B0F5A06FF1D16248006800F479
:1001A000003010B10120009001E000200090009884
:1001B000012843D15C48006840F010005A490860AB
:1001C0000846006820F0030008600846006840F018
:1001D0000200086053484068524948600846406839
:1001E00048600846406840F48060486008464068BF
:1001F00020F47C1048600846406840F4E8104860ED
:100200000846006840F08070086000BF45480068FC
:1002100000F000700028F9D04248406820F0030048
:10022000404948600846406840F00200486000BF0E
:100230003C48406800F00C000828F9D10CBD10B50E
:10024000FFF792FF10BD10B53648006840F001007E
:1002500034490860084640683449084031494860DC
:1002600008460068324908402E4908600846006880
:1002700020F4802008600846406820F4FE004860B2
:100280004FF41F008860FFF7DAFF4FF00060294944
:10029000086010BD10B5002100200022214B5B68D2
:1002A00003F00C0121B1042906D0082928D107E068
:1002B000214B224C236027E01F4B204C236023E07E
:1002C000184B5B6803F47010164B5B6803F48032C4
:1002D000022303EB904022B9194B4343174C236090
:1002E0000DE0104B5B6803F4003323B1144B434320
:1002F000124C236003E0104B4343104C236003E097
:100300000D4B0E4C236000BF00BF064B5B68C3F370
:1003100003130C4CE15C094B1B68CB40074C23607A
:1003200010BD000000100240002002400000FFF855
:10033000FFFFF6FE08ED00E000127A00000000204A
:1003400000093D000400002031490143314A116099
:10035000704770B5002100230F22C47804B32D4CE0
:10036000246804F4E064C4F5E064210AC1F10403E4
:10037000CA40447804FA03F1847814402143090107
:10038000254C0678A155047804F01F050124AC40E3
:1003900005786D11AD0005F1E025C5F8004109E0D3
:1003A000047804F01F050124AC401C4D067876113A
:1003B00045F8264070BD1A4A0A400243154B1B1FE0
:1003C0001A60704739B1134A121D12680243114B6B
:1003D0001B1D1A6006E00F4A121D126882430D4B66
:1003E0001B1D1A607047042808D14FF0E0210969ED
:1003F00041F004014FF0E022116107E04FF0E021ED
:10040000096921F004014FF0E022116170470000FA
:100410000000FA050CED00E000E400E080E100E0FF
:1004200080FFFF1F01684FF6FE721140016000213E
:10043000016041608160C1608D49884208D18C496A
:100440000839496841F00F01894A083A51608AE049
:1004500087491431884208D185490839496841F0F3
:10046000F001834A083A51607DE081492831884291
:1004700008D17F490839496841F470617C4A083ADB
:10048000516070E07A493C31884208D17849083996
:10049000496841F47041764A083A516063E0744912
:1004A0005031884208D172490839496841F47021B5
:1004B0006F4A083A516056E06D496431884208D16C
:1004C0006B490839496841F47001694A083A51603A
:1004D00049E067497831884208D165490839496857
:1004E00041F07061624A083A51603CE061498842DB
:1004F00006D1011F096841F00F01021F116032E0AF
:100500005C491431884208D15A49091F096841F0F1
:10051000F001584A121F116025E0564928318842DF
:1005200008D15449091F096841F47061514A121FEA
:10053000116018E04F493C31884208D14D49091FEC
:10054000096841F470414B4A121F11600BE04949A0
:100550005031884207D14749091F096841F4702189
:10056000444A121F1160704710B50022026847F616
:10057000F0739A430C6A8B6823430C6923434C69DC
:1005800023438C692343CC6923434C6A23438C6AFD
:1005900023431A430260CB6843600B6883604B6857
:1005A000C36010BD0021016041608160C1600161D4
:1005B00041618161C161016241628162704721B123
:1005C000026842F00102026004E002684FF6FE7326
:1005D0001A40026070471AB103680B43036002E0DF
:1005E00003688B4303607047416070470146486869
:1005F00080B2704701460020002201F080531BB1F9
:100600001C4B083B1A6802E0194B083B1A6802EAC7
:1006100001030BB1012000E00020704700F0805181
:1006200019B11449091F086002E0114908394860EE
:10063000704701460020002201F080531BB10D4B92
:10064000083B1A6802E00A4B083B1A6802EA0103F9
:100650000BB1012000E00020704700F0805119B17B
:100660000449091F086002E00149083948607047E1
:10067000080002400804024010B50446CC488442F9
:1006800008D10121042000F02DFB0021042000F0FE
:1006900029FB46E0C748844208D10121082000F028
:1006A00021FB0021082000F01DFB3AE0C2488442F3
:1006B00008D10121102000F015FB0021102000F0CE
:1006C00011FB2EE0BD48844208D10121202000F01A
:1006D00009FB0021202000F005FB22E0B8488442FD
:1006E00008D10121402000F0FDFA0021402000F057
:1006F000F9FA16E0B348844208D10121802000F0C5
:10070000F1FA0021802000F0EDFA0AE0AE488442C0
:1007100007D10121801500F0E5FA0021A01500F0B5
:10072000E1FA10BD10B50121084600F0DBFA002106
:10073000012000F0D7FA10BD2DE9F0410246002556
:100740000026002000230024002791F803C00CF0AD
:100750000F0591F803C00CF0100CBCF1000F03D092
:1007600091F802C04CEA050591F800C0BCF1000FF9
:1007700031D0146800202BE04FF0010C0CFA00F38C
:10078000B1F800C00CEA03069E4220D183004FF06E
:100790000F0C0CFA03F7BC4305FA03FC4CEA040403
:1007A00091F803C0BCF1280F06D14FF0010C0CFAF0
:1007B00000FCC2F814C00AE091F803C0BCF1480F75
:1007C00005D14FF0010C0CFA00FCC2F810C0401C1F
:1007D0000828D1D31460B1F800C0BCF1FF0F34DD9C
:1007E000546800202EE000F1080C4FF0010808FAD0
:1007F0000CF3B1F800C00CEA03069E4221D183003D
:100800004FF00F0C0CFA03F7BC4305FA03FC4CEA5B
:10081000040491F803C0BCF1280F05D100F1080CC5
:1008200008FA0CF8C2F8148091F803C0BCF1480F24
:1008300007D100F1080C4FF0010808FA0CF8C2F8D3
:100840001080401C0828CED35460BDE8F0814FF6DC
:10085000FF710180022181700421C170704702463E
:10086000002093680B400BB1012000E0002070478E
:100870000146886880B2704702460020D3680B406A
:100880000BB1012000E0002070470146C86880B22B
:10089000704701617047416170470AB1016100E032
:1008A00041617047C16070474FF480320A438261F2
:1008B0008161826182698269704702460020434BF0
:1008C00018684FF68073184040EA021008433F4B07
:1008D000186070473E49C8617047F0B50A4600236A
:1008E00000240021002500F00046B6F1004F02D19F
:1008F000364EF16901E0354E7168C0F3034583B2AD
:1009000000F44016B6F5401F08D121F070612F4E5B
:10091000766826F070662D4F7E6012E000F4801637
:10092000B6F5801F06D1032606FA05F4A14341F06F
:10093000706106E0460D360103FA06F6B14341F058
:10094000706122B1460D360103FA06F6314300F01C
:100950000046B6F1004F02D11C4EF16101E01B4E82
:100960007160F0BD30B500228B071C0F0F2303FA16
:1009700004F2164B08338C1053F824309343134C75
:1009800008348D1044F8253023468C1053F8243059
:100990008C07240F00FA04F423430C4C08348D1008
:1009A00044F8253030BD0A49DC310860704700004A
:1009B00000080140000C01400010014000140140FB
:1009C00000180140001C01400020014000000140CF
:1009D00000002042DF48006840F00100DD49086067
:1009E00008464068DC490840DA4948600846006823
:1009F000DA490840D74908600846006820F480209A
:100A000008600846406820F4FE0048604FF41F006C
:100A100088607047CF49096821F48031CD4A116060
:100A20001146096821F480211160B0F5803F03D0A0
:100A3000B0F5802F0ED106E0C649096841F4803137
:100A4000C44A116007E0C349096841F4A021C14AC2
:100A5000116000E000BF00BF704710B501460022E2
:100A6000002300204A11012A02D1BA4C236806E073
:100A7000022A02D1B74C236A01E0B64C636A01F046
:100A80001F02012494401C400CB1012000E0002012
:100A900010BD38B5002000900024002500BF312093
:100AA000FFF7DBFF05460098401C00900098B0F56A
:100AB000A06F01D0002DF2D03120FFF7CEFF08B19A
:100AC000012400E00024204638BD01460020A14A50
:100AD000106820F0F80040EAC10010607047A0499B
:100AE00008607047024600209A4B586820F47C103A
:100AF00042EA01031843974B5860704798490866CB
:100B0000704701460020934A506820F003000843D4
:100B1000506070478F48406800F00C0070470146F5
:100B200000208C4A506820F0F00008435060704765
:100B300001460020874A506820F4E0600843506076
:100B4000704701460020834A506820F4605040EA14
:100B5000C1005060704729B17E4A527A02437D4BF2
:100B60005A7204E07B4A527A82437A4B5A72704737
:100B70007B49D8310860704701460020754A5068AB
:100B800020F440400843506070470021714A2032F1
:100B90001170704A82F82010012802D004280AD16E
:100BA00004E001216B4A2032117005E00521694AF9
:100BB0002032117000E000BF00BF70476949086033
:100BC00070476449096A0143624A11627047654986
:100BD00044390860704730B500210022002400230A
:100BE0005C4D6D6805F00C0121B1042905D0082980
:100BF00023D105E05C4D056022E05B4D05601FE000
:100C0000544D6D6805F47012524D6D6805F48034D2
:100C1000022505EB92421CB9544D554305600BE08B
:100C20004C4D6D6805F400351DB1504D55430560C0
:100C300002E04D4D5543056002E04B4D056000BF9D
:100C400000BF444D6D6805F0F0010909484D6B5C2B
:100C50000568DD4045603F4D6D6805F4E061090AB7
:100C6000434D6B5C4568DD4085603A4D6D6805F429
:100C70006051C90A3E4D6B5C4568DD40C560354D2D
:100C80006D6805F44041890B3A4D6B5CC568B5FB56
:100C9000F3F5056130BD29B12E4A526902432D4B4F
:100CA0005A6104E02B4A526982432A4B5A617047C9
:100CB00029B1284A92690243264B9A6104E0254AE9
:100CC00092698243234B9A61704729B1214AD269C4
:100CD0000243204BDA6104E01E4AD26982431D4B75
:100CE000DA61704729B11B4AD2680243194BDA60B6
:100CF00004E0184AD2688243164BDA60704729B183
:100D0000144A12690243134B1A6104E0114A126932
:100D10008243104B1A61704712494039086070478E
:100D20000F49C86470470B49C87170470948406A49
:100D300040F0807007494862704701460020054A2C
:100D400092680A400AB1012000E000207047014982
:100D500088727047001002400000FFF8FFFFF6FEA7
:100D6000000042428004424200127A0000093D0025
:100D7000140000202400002010B50446BE48844220
:100D800008D101218014FFF7ADFF0021A014FFF767
:100D9000A9FF16E0B948844208D101210014FFF7E9
:100DA000AEFF00212014FFF7AAFF0AE0B4488442F6
:100DB00007D10121C013FFF7A2FF0021E013FFF7C5
:100DC0009EFF10BD10B50022028802F441520B882C
:100DD0004C8823438C882343CC8823430C892343AA
:100DE0004C8923438C892343CC8923431A430280B3
:100DF000838B4FF2FF74234083830B8A038210BDE1
:100E00002DE9F04F85B005460C464FF0000902274A
:100E10004FF000084FF0010B0026B246A88B4FF2AE
:100E200040010840A88302202884B5F81C90A068DF
:100E3000022801D100BF38E0A08810B94FF0010BA3
:100E400001E04FF0020B8D48854200D100E000BF69
:100E50006846FFF7C0FEDDF800A0E088B0F5007F2F
:100E60000AD14FEA1A2000EB80004000A168B0FBD5
:100E7000F1F0401D86B20BE04FEA4B10BAFBF0F0E8
:100E800000EB80004000A168B0FBF1F0401D86B28D
:100E90000A20B6FBF0F606F00108A6EB0800C0F346
:100EA0004F074FF6FF7000EA0828022F01DBFF2FE3
:100EB00002DD02274FF00008E08840EA08003843CE
:100EC0002884A088A18908436188084321880843B1
:100ED00040F4006040EA0909A5F81C9005B0BDE89F
:100EE000F08F0021018041808180C180018141819A
:100EF0008181C181072101827047002101804180E9
:100F00008180C1800221816000218181704721B1EF
:100F1000028842F04002028004E002884FF6BF736C
:100F20001A400280704721B1828B42F48062828332
:100F300004E0828B4FF6FF331A408283704730B54E
:100F4000002400230C110125A540ABB21AB18588FD
:100F50001D43858002E085889D43858030BD1AB1A0
:100F600083880B43838002E083888B4383807047B0
:100F7000818170470146888970474FF6FF62914230
:100F800004D0028842F48072028004E002884FF6A6
:100F9000FF631A400280704721B1828842F0040248
:100FA000828004E082884FF6FB731A40828070478B
:100FB00002884FF2FF731A40028002880A430280BF
:100FC0007047018841F480510180704721B1028847
:100FD00042F40052028004E002884DF6FF731A408A
:100FE0000280704702460020012901D0108B00E0EA
:100FF000908A70470146088A7047B1F5804F04D146
:10100000028842F48042028004E002884BF6FF73BB
:101010001A40028070470246002013890B400BB132
:10102000012000E000207047CA4302817047F0B5FC
:101030000246002000240023002501F00F070126AE
:10104000BE40B4B20B1101269E40B3B2968806EAA8
:1010500003051689264016B10DB1012000E00020DD
:10106000F0BD10B5002201F00F040123A3409AB295
:10107000D343038110BD0000003001400038004020
:10108000003C004010B50446FE48844208D10121CE
:10109000C014FFF727FE0021E014FFF723FEC4E091
:1010A000B4F1804F08D101210846FFF728FE002146
:1010B0000120FFF724FEB8E0F348844208D1012163
:1010C0000220FFF71CFE00210220FFF718FEACE013
:1010D000EE48844208D101210420FFF710FE0021D0
:1010E0000420FFF70CFEA0E0E948844208D101216A
:1010F0000820FFF704FE00210820FFF700FE94E01F
:10110000E448844208D101211020FFF7F8FD0021B6
:101110001020FFF7F4FD88E0DF48844208D1012168
:101120002020FFF7ECFD00212020FFF7E8FD7CE008
:10113000DA48844208D101214014FFF7D3FD002191
:101140006014FFF7CFFD70E0D548844209D101213A
:10115000C804FFF7C7FD00214FF40020FFF7C2FDD0
:1011600063E0D048844209D101210805FFF7BAFDA8
:1011700000214FF48010FFF7B5FD56E0CA488442C5
:1011800009D101214805FFF7ADFD00214FF4001002
:10119000FFF7A8FD49E0C548844208D1012140205D
:1011A000FFF7ADFD00214020FFF7A9FD3DE0C0485D
:1011B000844208D101218020FFF7A1FD0021802079
:1011C000FFF79DFD31E0BB48844208D10121801525
:1011D000FFF795FD0021A015FFF791FD25E0B6482A
:1011E000844209D101210804FFF77CFD00214FF45E
:1011F0008030FFF777FD18E0B048844209D1012123
:101200004804FFF76FFD00214FF40030FFF76AFD3F
:101210000BE0AB48844208D101218804FFF762FD4E
:1012200000214FF48020FFF75DFD10BD00220288F1
:10123000944B98420ED0994B98420BD0B0F1804F0E
:1012400008D0914B984205D0904B984202D0904BD9
:10125000984204D14FF68F731A404B881A438D4B36
:10126000984207D08C4B984204D04FF6FF431A4067
:10127000CB881A4302808B8883850B880385814B3A
:1012800098420BD0854B984208D08B4B984205D0A2
:101290008A4B984202D08A4B984201D10B7A03863E
:1012A00001238382704770B5002400220023058C3F
:1012B0004FF6FE7635400584028C8388048B4FF60A
:1012C0008F752C40B51E2C400D882C43751E2A406E
:1012D0000D892A434D882A436A4DA8420BD06F4D91
:1012E000A84208D0744DA84205D0744DA84202D03F
:1012F000734DA84213D14FF6F7752A404D892A4302
:101300004FF6FB752A408D882A434FF6FF652B4028
:101310004FF6FF552B408D892B43CD892B4383807E
:101320000483CD888586028470BD70B500240022B8
:101330000023058C4FF6EF7635400584028C8388B8
:10134000048B48F6FF752C404FF6FF452C400D8866
:101350004FF6FF7606EA05252C434FF6DF752A4047
:101360000D8906EA05152A434D8806EA05152A4324
:10137000444DA84202D0494DA8421DD14FF67F7579
:101380002A404D894FF6FF7606EA05152A434FF6A7
:10139000BF752A408D8806EA05152A434FF6FF35AA
:1013A0002B404FF2FF752B408D8906EA85052B43B4
:1013B000CD8906EA85052B4383800483CD88058784
:1013C000028470BD70B5002400220023058C4FF606
:1013D000FF6635400584028C8388848B4FF68F75B9
:1013E0002C404FF6FC752C400D882C434FF6FF55D2
:1013F0002A400D894FF6FF7606EA05252A434D88D7
:1014000006EA05252A431F4DA84202D0234DA842D3
:101410001DD14FF2FF752A404D894FF6FF7606EA3F
:1014200005252A434FF6FF352A408D8806EA052513
:101430002A434EF6FF752B404DF6FF752B408D89E4
:1014400006EA05152B43CD8906EA05152B43838053
:101450008483CD888587028470BD70B50022002307
:101460000024058C4EF6FF7635400584038C848875
:10147000828B48F6FF752A404FF6FF452A400D88BB
:1014800020E00000002C0140000400400008004063
:10149000000C0040001000400014004000340140E7
:1014A000004C014000500140005401400018004031
:1014B000001C00400020004000400140004401406A
:1014C000004801404FF6FF7606EA05252A434DF60F
:1014D000FF752B400D8906EA05352B434D8806EA3A
:1014E00005352B43FA4DA84202D0FA4DA84208D147
:1014F0004BF6FF752C408D894FF6FF7606EA851571
:101500002C4384808283CD88A0F84050038470BD32
:10151000828B4FF2FF331A408283828B4FF6FF7328
:1015200003EA01231A4382837047F0B50C4615463F
:10153000002200210026078C4EF6FF7C07EA0C07EC
:101540000784828B018C4FF6FF7707EA043640F65A
:10155000FF473A404FF6FF7707EA05273A434FF631
:10156000FF7707EA03373A43D94FB8420ED0D94F35
:10157000B8420BD0B0F1804F08D0D74FB84205D059
:10158000D64FB84202D0D64FB84206D14DF6FF77BB
:10159000394046F48057394305E047F6FF57394054
:1015A00044F48057394382830184F0BD828B4FF627
:1015B000F3731A408283828B0A4382837047F0B5AB
:1015C0000C461546002200210026078C4FF6FF6CC2
:1015D00007EA0C070784828B018C4FF6FF7707EA36
:1015E00004264FF60C773A404FF6FF7707EA0317C9
:1015F0002F433A43B64FB8420ED0B64FB8420BD045
:10160000B0F1804F08D0B44FB84205D0B34FB842C4
:1016100002D0B34FB84206D14FF6FF57394046F4D7
:101620008077394305E04FF2FF57394044F4807723
:10163000394382830184F0BD028B4FF2FF331A409D
:101640000283028B4FF6FF7303EA01231A430283DE
:101650007047F0B50C461546002200210026078C85
:101660004FF6EF7C07EA0C070784028B018C4FF6DC
:10167000FF7707EA041640F6FF473A404FF6FF7738
:1016800007EA03373A434FF6FF7707EA05273A435D
:101690008F4FB8420ED08F4FB8420BD0B0F1804F71
:1016A00008D08D4FB84205D08C4FB84202D08C4F35
:1016B000B84206D14FF6DF77394046F0100739437C
:1016C00005E04FF65F77394044F010073943028355
:1016D0000184F0BD028B4FF6F3731A400283028B34
:1016E0000A4302837047F0B50C46154600220021DC
:1016F000068C4FF6FE773E400684028B018C4FF637
:101700000C7632407E1C06EA03162E433243704E9E
:10171000B0420ED06F4EB0420BD0B0F1804F08D027
:101720006D4EB04205D06D4EB04202D06C4EB0420C
:1017300006D14FF6FD76314044F00106314305E015
:101740004FF6F576314044F00106314302830184BF
:10175000F0BD70B505460C465D4885420ED05D482B
:1017600085420BD0B5F1804F08D05B48854205D04B
:101770005A48854202D05A48854200D100E000BF55
:10178000208850B92389A28861882846FFF7ABFFDB
:10179000E1882846FFF79EFF25E0208804280AD12B
:1017A0002389A28861882846FFF753FFE1882846ED
:1017B000FFF742FF17E0208808280AD12389A28872
:1017C00061882846FFF7FBFEE1882846FFF7EEFE1A
:1017D00009E02389A28861882846FFF7A6FEE188F0
:1017E0002846FFF795FE70BD2DE9F04105460C46F1
:1017F00000260127608808B9022600E00026A0889C
:10180000012801D1022700E001272088A0B92389FF
:10181000A28861882846FFF766FFE1882846FFF71F
:1018200059FF23893A4631462846FFF712FFE188DF
:101830002846FFF701FF13E02389A2886188284624
:10184000FFF707FFE1882846FFF7F6FE23893A46AF
:1018500031462846FFF747FFE1882846FFF73AFF61
:10186000BDE8F0810A884B881A438B881A43CB88DD
:101870001A430B891A434B891A438B891A43A0F8E0
:10188000442070474FF6FF71818000210180C180A4
:101890004180017270470021018041808180C180B8
:1018A000018141818181C181704700210180418096
:1018B000012181800021C1800181704700210180C8
:1018C00041808180C1800181418181817047000018
:1018D000002C01400034014000040040000800409A
:1018E000000C004021B1028842F00102028004E0B5
:1018F00002884FF6FE731A400280704731B1B0F88B
:10190000442042F40042A0F8442005E0B0F844200E
:10191000C2F30E02A0F8442070471AB183890B432A
:10192000838102E083898B43838170478182704782
:1019300041EA0203A0F8483070471AB183890B438B
:10194000838102E083898B438381704701894FF64D
:10195000F8721140018170470A46002101894FF653
:101960008F73194011430181704730B504460D460D
:1019700029462046FFF7F0FF208940F0070020812C
:1019800030BD2DE9F04104460D4616461F46602D38
:1019900006D13B46012231462046FFF75AFE05E0BC
:1019A0003B46012231462046FFF79DFE2946204650
:1019B000FFF7D2FF208940F007002081BDE8F081C9
:1019C00030B50C4600210189C9B24FF6FF7505EA12
:1019D0000325154325432943018130BD2DE9F041FD
:1019E00005460E4617469846002443463A46314679
:1019F0002846FFF7E5FF2C894FF6F870044044F0C5
:101A000007044FF68F70044044F070042C81BDE849
:101A1000F081F0B504460D4616461F463B46324659
:101A200029462046FFF7CCFF208940F480402081E2
:101A3000F0BD0185828270470A46002101884FF679
:101A40008F731940114301807047F0B50C4615465D
:101A50001E460021002200230189028B038C4FF6D1
:101A6000F877394021434FF6FC473A4040F20117DE
:101A70003A434FF6DD773B404FF6FF7707EA06170C
:101A80002F433B43018102830384F0BD0A460021BA
:101A9000018B4FF68F7319401143018370470A463B
:101AA0000021018B48F6FF7319404FF6FF7303EADC
:101AB00002231943018370470A460021818B4FF6A8
:101AC0008F7319401143818370470A460021818B2F
:101AD00048F6FF7319404FF6FF7303EA02231943D8
:101AE0008183704721B1028842F08002028004E0C5
:101AF00002884FF67F731A400280704721B18288B6
:101B000042F00402828004E082884FF6FB731A40A0
:101B10008280704721B1828842F00802828004E00E
:101B200082884FF6F7731A408280704721B182880D
:101B300042F00102828004E082884FF6FE731A4070
:101B4000828070470A460021018B4FF6F7731940D7
:101B50001143018370470A460021018B4FF2FF7346
:101B600019404FF6FF7303EA0223194301837047BC
:101B70000A460021818B4FF6F77319401143818388
:101B800070470A460021818B4FF2FF7319404FF6D0
:101B9000FF7303EA02231943818370470A46002139
:101BA000018B4FF6FB7319401143018370470A46BE
:101BB0000021018B4FF6FF3319404FF6FF7303EA04
:101BC00002231943018370470A460021818B4FF697
:101BD000FB7319401143818370470A460021818BB2
:101BE0004FF6FF3319404FF6FF7303EA0223194300
:101BF000818370470A460021018B4FF67F7319409D
:101C00001143018370470A460021018BC1F30E0185
:101C10004FF6FF7303EA02231943018370470A4614
:101C20000021818B4FF67F731940114381837047E8
:101C30000A460021818BC1F30E014FF6FF7303EAC0
:101C400002231943818370470A460021018C4FF615
:101C5000FD7319401143018470470A460021018C2D
:101C60004FF6F77319401143018470470A4600216B
:101C7000018C4FF6DF7319404FF6FF7303EA02132E
:101C80001943018470470A460021018C4FF67F7387
:101C900019404FF6FF7303EA02131943018470479A
:101CA0000A460021018C4FF6FF5319404FF6FF738F
:101CB00003EA02231943018470470A460021018C7C
:101CC0004FF2FF7319404FF6FF7303EA02231943E3
:101CD000018470470A460021018C4DF6FF731940BC
:101CE0004FF6FF7303EA023319430184704730B59E
:101CF000002301248C40A3B2048C9C430484048CF4
:101D000002FA01F5ADB22C43048430BD30B5002396
:101D100004248C40A3B2048C9C430484048C02FAF7
:101D200001F5ADB22C43048430BD70B503460020EC
:101D300000241846183001258D40ACB21D8CA543F7
:101D40001D8409B1082909D100EB6100056825F05F
:101D5000700505600568154305600EE00D1FC5F3AD
:101D60004E052844056825F4E045056005684FF6F2
:101D7000FF7606EA02263543056070BD21B1028870
:101D800042F00202028004E002884FF6FD731A401E
:101D90000280704721B1028842F00402028004E010
:101DA00002884FF6FB731A400280704721B1828887
:101DB00042F08002828004E082884FF67F731A40EE
:101DC0008280704702884FF6F7731A4002800288BB
:101DD0000A430280704782884FF68F731A408280D0
:101DE00082880A438280704702894FF6F8731A404E
:101DF000028102890A430281704702894FF67F738C
:101E00001A40028102890A43028170478184704727
:101E10008185704781867047018770478187704749
:101E2000A0F84010704702884FF6FF431A40028026
:101E300002880A43028070470146888E7047014637
:101E4000088F70470146888F70470146B1F84000FF
:101E500070470146888C70470146088D70470246DE
:101E60000020138A0B400BB1012000E000207047D6
:101E7000CA430282704730B5024600200023002486
:101E8000158A05EA0103958905EA010413B10CB12D
:101E9000012000E0002030BDCA43028270470000EC
:101EA00010B50446FB48844209D101218803FEF79E
:101EB00019FF00214FF48040FEF714FF32E0F6488E
:101EC000844209D101214804FEF719FF00214FF493
:101ED0000030FEF714FF25E0F048844209D10121CB
:101EE0008804FEF70CFF00214FF48020FEF707FF67
:101EF00018E0EB48844209D10121C804FEF7FFFE37
:101F000000214FF40020FEF7FAFE0BE0E548844282
:101F100008D101210805FEF7F2FE00214FF48010E0
:101F2000FEF7EDFE10BD2DE9F04786B005460E46E2
:101F30000024A24600BFA1460027B08900B100BF1F
:101F40002F462C8A4CF6FF700440F08804432C8204
:101F5000AC894EF6F3100440B0883189084371898A
:101F600008430443AC81AC8A4FF6FF400440B0897B
:101F70000443AC8201A8FEF72EFEC648874202D178
:101F8000DDF810A001E0DDF80CA0A88900F4004005
:101F900040B10AEBCA0000EB0A1031684900B0FBFF
:101FA000F1F807E00AEBCA0000EB0A10316889007B
:101FB000B0FBF1F86420B8FBF0F0040120096421C3
:101FC00001FB1089A88900F4004040B1322000EBE9
:101FD000C900B0FBF1F000F00700044308E0322034
:101FE00000EB09106421B0FBF1F000F00F00044396
:101FF0002C8106B0BDE8F0874FF416510160002136
:102000008180C18001810C21418100218181704743
:1020100010B502460020108A4FF2FF0318400B88CB
:102020004C8823438C882343CC8823431843108255
:1020300010BD0021018041808180C180704721B1A5
:10204000828942F40052828104E082894DF6FF7356
:102050001A4082817047F0B503460024002600250F
:10206000002040F66A17B94200D100BF1846C1F3FC
:10207000421401F01F06012707FA06F5012C01D1D1
:102080000C3004E0022C01D1103000E014301AB101
:1020900007682F43076002E00768AF430760F0BDA1
:1020A0001AB1838A0B43838202E0838A8B43838243
:1020B0007047028A4FF6F0731A400282028A0A437E
:1020C0000282704782894FF2FF731A4082818289AF
:1020D0000A438281704721B1828942F002028281E3
:1020E00004E082894FF6FD731A4082817047028AAC
:1020F0004FF6DF731A400282028A0A430282704757
:1021000021B1028A42F48042028204E0028A4BF644
:10211000FF731A4002827047C1F308028280704741
:1021200001468888C0F308007047818941F00101A9
:1021300081817047028BD2B20283028B42EA012274
:1021400002837047028B02F47F420283028B0A43B0
:102150000283704721B1828A42F02002828204E029
:10216000828A4FF6DF731A408282704721B1828AD9
:1021700042F01002828204E0828A4FF6EF731A4026
:102180008282704721B1828A42F00802828204E092
:10219000828A4FF6F7731A408282704721B1828992
:1021A00042F40042828103E08289C2F30E028281FE
:1021B000704721B1828A42F40062828204E0828AFE
:1021C0004FF2FF731A4082827047828A4FF6FB7388
:1021D0001A408282828A0A438282704721B1828AAF
:1021E00042F00202828204E0828A4FF6FD731A40B6
:1021F0008282704702460020B1F5007F00D100BF07
:1022000013880B400BB1012000E00020704701F45F
:102210000072B2F5007F00D100BFCA430280704750
:1022200070B50246002400230025002040F66A16FF
:10223000B14200D100BFC1F3421501F01F030126D6
:1022400006FA03F3012D02D19689334006E0022DF0
:1022500002D1168A334001E0968A33400C120126DF
:1022600006FA04F41688344013B10CB1012000E0E2
:10227000002070BD10B50022002340F66A14A14270
:1022800000D100BF0A1201249440A3B2DC430480B1
:1022900010BD0000003801400044004000480040EC
:1022A000004C004000500040FA490978FA4A117089
:1022B000F84908707047F9490870704730B591B017
:1022C0000546F7480068422801DB11B030BD002404
:1022D00014E004EB0410F34951F82000A8420CD19B
:1022E00004EB041001EB8000006C401C04EB0411B3
:1022F000EC4A02EB8101086404E0641CE8480068D1
:102300008442E6DB00BFE648006884421AD1E44814
:102310000068401CE249086001A9284601F097F9CD
:1023200078B104EB0411DF4A02EB8100402201A9DD
:1023300001F0D2FF012004EB0411DA4A02EB810123
:10234000086400BF00BFC0E70020D549086070479F
:1023500010B5D3480168D34801F056FC10BD10B544
:102360002020D14908600120091F08600220086070
:102370000121CE48FEF78FFA10BD10B504461CB1FE
:10238000CBA002F07FFE02E0CFA002F07BFE10BDEA
:1023900030B591B0D24800F0F5FF002873D0D04896
:1023A0000078052825D2DFE800F0900325476F006C
:1023B000BA480078D0B90420FFF776FFC8484068D3
:1023C000C849086008460168C7A002F05BFE01200A
:1023D000FFF771FF01F0D8F8CDA002F053FE022004
:1023E000FFF769FF0020CE49086002E0CDA002F0AF
:1023F00049FE6BE0A948007802281CD1B848C268A1
:1024000000F110038168C648006801F0EBF8C44889
:102410000068401CC2490860084600683221B0FBD1
:10242000F1F201FB120030B9AE480268BC48016805
:10243000C3A002F027FE49E098480078022821D185
:10244000A7484268B6480168C5A002F01BFEA44830
:102450004068B3490968884207D1B148006801F073
:10246000ACF8C9A002F00EFE05E0D2A002F00AFE10
:10247000D8A002F007FE0020FFF71DFF8648007875
:10248000FFF712FF22E022E084480078C8B994499F
:10249000886801A901F0DBF878B1029802F084F8AD
:1024A00004460B4603A800902246D5A0019902F0ED
:1024B000E9FD0198FFF702FF02E0D9A002F0E2FD7A
:1024C00002E0E1A002F0DEFD00E000BF00BF11B0BD
:1024D00030BD1FB501210846FEF7F7FB42F20F7031
:1024E000ADF8080041F61F40ADF804000020ADF83B
:1024F0000A00ADF8060001A94FF08040FEF796FEF5
:10250000012211469007FFF708FA1C208DF8000001
:1025100002208DF8010000208DF8020001208DF8C6
:1025200003006846FDF715FF01218807FFF7DAF978
:102530001FBD08B5012240F22551CA48FFF78BFDA7
:102540004FF4A060FDF700FF25208DF8000001206A
:102550008DF801008DF802008DF803006846FDF744
:10256000F8FE08BD08B500F0C1FDFFF7E2FF01F07D
:1025700073FB01F0BFF900F0B3FE00F0D3FF01F0F0
:10258000ADF8FFF7A6FF01F08DFE00F043FA02E080
:10259000B5A002F077FD01F002FE0028F8D132204C
:1025A00001F0E5F901F0CBFAB7A002F06BFD3220A3
:1025B00001F0DDF9A4E1BD490868BD4902F024F845
:1025C00007D3BA480079642817DDB8480079642831
:1025D00013DA0320FFF768FE0020FFF76CFEB34913
:1025E000086801F0E1FF0446B048007922460B4636
:1025F0000090B04802F046FD25E026480078032808
:1026000021D101212948FEF744F9202026490860FC
:102610000120091F0860022008600020FFF744FE27
:102620000020FFF748FE0020FFF7A7FE9F4908683B
:1026300001F0BAFF04469D48007922460B460090FF
:102640009D4802F01FFDFFF7A3FE12480078052801
:102650001AD2DFE800F0031D1C1B1A00FFF774FEFE
:1026600001F006FB78B195A002F00CFD0120FFF708
:1026700084FE4FF4487001F07AF90020FFF77DFEE8
:102680000120FFF711FE3AE138E136E132E130E1B5
:1026900022E1000029000020280000202A0000205C
:1026A0003C000020A0000020140C0140001001405C
:1026B000536572766F20446F6F72204F70656E6540
:1026C000642E0D0A00000000536572766F20446F7F
:1026D0006F7220436C6F7365642E0D0A000000005A
:1026E0005C000020300000203C3C2053594E435FEA
:1026F0005354415254203E3E2045787065637469BE
:102700006E67202564206974656D732E0D0A0000C4
:10271000434D443A5245515F53594E430A0000001D
:102720002C000020434D443A414C41524D2C4D5316
:10273000473A427573795F53796E63696E670A0031
:102740005B4C6F675D2053796E632050726F6772C8
:102750006573733A2025642F25640D0A000000007C
:102760003C3C2053594E435F454E44203E3E205250
:102770006563763A2025642C2050435F53756D3A8B
:102780002025640D0A0000005B5375636365737355
:102790005D20446174616261736520557064617489
:1027A0006564205375636365737366756C6C792E0D
:1027B0000D0A00005B4572726F725D2044617461A6
:1027C00020436F756E74204D69736D617463682169
:1027D0000D0A0000434D443A414C41524D2C4C45AA
:1027E00056454C3A322C4D53473A53796E635F4D00
:1027F00069736D617463685F4572726F720A00007D
:10280000434D443A5245504F52542C49443A256462
:102810002C50523A252E32662C4E4D3A25730A0022
:10282000434D443A414C41524D2C4C4556454C3A4F
:10283000312C4D53473A4974656D5F4E6F745F4656
:102840006F756E640A000000434D443A414C41529A
:102850004D2C4D53473A53797374656D5F427573D0
:10286000790A0000003801405B53797374656D5D2F
:102870002044485431315F496E697420696E672E77
:102880002E2E0D0A000000005B53797374656D5D98
:1028900020445331384232305F496E697420436FAF
:1028A0006D706C6574652E0D0A0000003400002008
:1028B00000000C42985A0008EC5A00085B53686FFD
:1028C000705D2053686F7070696E67205374617219
:1028D0007465642E0D0A0000FFF73AFD01F0DBF984
:1028E00001F002FA01F026FA10B10220FFF7DCFC39
:1028F00005E004E0FFF733FD01E000E000BF00BFAA
:1029000059E638B501218807FFF7B5FA00281FD02E
:1029100001218807FFF7C0FA0E480078042803D188
:102920000DA002F0AFFB38BD01F025F91849086091
:1029300001F0A7FC16490871086801F035FE04464D
:102940001348007922460B46009012A002F09AFB31
:1029500000BFE8E7290000205B54494D325D205359
:10296000796E63696E6720696E2070726F67726539
:1029700073732C20736B697070696E672073656E5A
:10298000736F72207570646174652E0D0A0000000B
:10299000340000205B53656E736F725D2054656D6B
:1029A00070657261747572653A20252E3266204317
:1029B0002C2048756D69646974793A202564202556
:1029C000250D0A00704700BFFEE700BFFEE700BF0D
:1029D000FEE700BFFEE7704770477047704710B5CD
:1029E00040F225510A48FFF71BFC38B10848FFF7B1
:1029F00097FBC4B2204600F07AFC00BF40F22441AD
:102A00000348FFF70DFC10B10148FFF789FB10BD2B
:102A10000038014008B501210820FEF749F92020BF
:102A2000ADF8000010208DF8030003208DF802009F
:102A300069460F48FDF780FE0120ADF800006946A9
:102A40000B48FDF779FE0220ADF800006946084802
:102A5000FDF772FE20210648FDF71BFF0121044807
:102A6000FDF717FF02210248FDF713FF08BD000024
:102A7000000C014000B587B001210803FEF718F9EA
:102A800001210846FEF707F90121C420FEF710F9DD
:102A90001020ADF8040003208DF8060010208DF8FA
:102AA000070001A9F848FDF747FE2020ADF8040013
:102AB00018208DF8070001A9F348FDF73DFE4020DE
:102AC000ADF8040001A9F048FDF736FE8020ADF80E
:102AD000040001A9EC48FDF72FFE1021EA48FDF79C
:102AE000D8FE0020ADF808004FF48270ADF80A005F
:102AF0000020ADF80C000220ADF80E000120ADF86A
:102B000010004002ADF812000820ADF814000020BB
:102B1000ADF816000720ADF8180002A9DB48FEF753
:102B200051F90121D948FEF7F2F901220221D748D3
:102B3000FEF715FA01221146D448FEF710FA07B045
:102B400000BD2DE9F0438BB080460C4615461E466D
:102B5000DDE912794046FDF765FCCC480C30009069
:102B600000200190102F01D1019400E001950297FF
:102B7000039600200490CDF81490069007900890DA
:102B80004FF48050099000200A9069464046FDF7B6
:102B9000EBFC01214046FDF712FD0BB0BDE8F083D0
:102BA00010B504462146BAA002F06CFA002010BD10
:102BB00010B504464FF48050C24908600AE0C1498C
:102BC0000868411EBF4A116020B90020FFF7E8FFE6
:102BD000C0B210BD0221AD48FEF71DFA0028EED0AC
:102BE0002146AA48FEF7C4F94FF48050B549086061
:102BF0000AE0B4490868411EB24A116020B90120B8
:102C0000FFF7CEFFC0B2E4E70121A048FEF703FAC8
:102C10000028EED09D48FEF7ADF9C0B2D9E710B557
:102C2000002410219848FDF736FE0520FFF7C0FF6D
:102C300000BFFF20FFF7BCFF044604F0010000289E
:102C4000F7D110219048FDF724FE10BD10B51021DA
:102C50008D48FDF720FE0620FFF7AAFF10218A48C5
:102C6000FDF717FE10BD10B50446FFF7EFFFFFF7A5
:102C7000D6FF10218448FDF70EFE2020FFF798FFB5
:102C8000C4F30740FFF794FFC4F30720FFF790FF5A
:102C9000E0B2FFF78DFF10217B48FDF7FAFDFFF74B
:102CA000BEFF10BD10B5FFF7D1FF10217648FDF72C
:102CB000F2FDC720FFF77CFF10217348FDF7E9FD07
:102CC000FFF7ADFF10BD7CB506460C46154605B9AD
:102CD0007CBDFFF7BBFF10216B48FDF7DCFD022038
:102CE000FFF766FFC4F30740FFF762FFC4F3072056
:102CF000FFF75EFFE0B2FFF75BFFB5F5807F04DD15
:102D00004FF4807570A002F0BDF9802010212B4691
:102D10000022CDE9001031467848FFF712FF00BFCE
:102D20004FF40070FDF766FC0028F9D04FF40070F6
:102D3000FDF774FC00217148FDF741FC00BF8021C4
:102D40005248FEF768F90128F9D010214E48FDF7E6
:102D5000A0FDFFF764FF00BFBAE72DE9F05F07466B
:102D60000E4614464FF00008C146C2460025AB4649
:102D700006F0FF0ACAF10000C5B22046E11704EBD5
:102D80001161C1F30728E11704EB11610912A4EBEB
:102D9000012101F0FF09BAF1000F20D1B8F1000FB5
:102DA00005D1224631463846FFF78DFF64E009E041
:102DB0004FF4807231463846FFF785FF06F580767E
:102DC00007F58077B8F10000A8F1010101F0FF08D4
:102DD000EED14A4631463846FFF775FF4CE0B8F170
:102DE000000F18D1A94510DDA9EB050000F0FF0B7D
:102DF0002A4631463846FFF766FF2E442F445A468E
:102E000031463846FFF75FFF36E022463146384606
:102E1000FFF759FF30E0601B84B22046E11704EB56
:102E20001161C1F30728E11704EB11610912A4EB4A
:102E3000012101F0FF092A4631463846FFF743FFDA
:102E40002E442F4409E04FF4807231463846FFF794
:102E50003AFF06F5807607F58077B8F10000A8F113
:102E6000010101F0FF08EED1B9F1000F04D04A468C
:102E700031463846FFF727FFBDE8F09F7CB5064690
:102E80000C461546E5BB7CBD000801400030014002
:102E90003C3C2D464C4153482D4552524F522D3EFD
:102EA0003E2053504920E7AD89E5BE85E8B685E66A
:102EB00097B6216572726F72436F6465203D20255D
:102EC000640A0000400000203C3C2D464C41534821
:102ED0002D4552524F522D3E3E205350495F464C95
:102EE0004153485F50616765577269746520746F1C
:102EF0006F206C61726765210A000000300002409B
:102F0000FFE710217448FDF7C6FC0320FFF750FED1
:102F1000C4F30740FFF74CFEC4F30720FFF748FE59
:102F2000E0B2FFF745FE802000212B463246CDE976
:102F300000106A48FFF705FE002010212B460246CC
:102F4000CDE90010664965481430FFF7FAFD00BF6F
:102F50002020FDF74FFB0028FAD02020FDF75EFB74
:102F60004FF40070FDF75AFB00215C48FDF727FB8A
:102F700000215A481430FDF722FB10215648FDF776
:102F800088FC00BF7CBD2DE9F0410024002500260F
:102F9000002710215048FDF77EFC9F20FFF708FE18
:102FA000FF20FFF705FE0546FF20FFF701FE06465E
:102FB000FF20FFF7FDFD074610214748FDF769FC9C
:102FC000280440EA062040EA07042046BDE8F081D4
:102FD00010B5002410214048FDF75DFCAB20FFF741
:102FE000E7FDFF20FFF7E4FDFF20FFF7E1FDFF20F5
:102FF000FFF7DEFDFF20FFF7DBFD0446102136481A
:10300000FDF747FC204610BD10B50446102132489C
:10301000FDF741FC0320FFF7CBFDC4F30740FFF7AA
:10302000C7FDC4F30720FFF7C3FDE0B2FFF7C0FD03
:1030300010BD10B5FF20FFF7BBFD10BD10B5044655
:103040004FF480502749086009E026490868411E6E
:10305000244A116018B90220FFF7A2FD10BD022119
:103060002148FDF7D8FF0028EFD021461E48FDF784
:103070007FFF4FF480501B49086009E01949086838
:10308000411E184A116018B90320FFF789FDE5E7D2
:1030900001211548FDF7BFFF0028EFD01248FDF7CA
:1030A00069FFDBE710B510210B48FDF7F4FBB920F1
:1030B000FFF77EFD10210848FDF7EBFB10BD10B5B2
:1030C00010210548FDF7E7FBAB20FFF771FD10214C
:1030D0000148FDF7DEFB10BD000801401C00024066
:1030E00044000020400000200030014000B587B0BF
:1030F00001210420FDF7DCFD01218803FDF7D8FD47
:103100004FF4A060FDF720F925208DF80400012080
:103110008DF807008DF8050003208DF8060001A842
:10312000FDF717F94FF40070ADF8180018208DF86E
:103130001B0003208DF81A0006A96548FDF7FCFA6C
:103140004FF48060ADF8180004208DF81B0006A92C
:103150005F48FDF7F1FA4FF4E13002900020ADF83E
:103160000C00ADF80E00ADF81000ADF814000C2006
:10317000ADF8120002A95748FEF7D5FE012240F231
:1031800024415448FEF767FF01215248FEF757FFDC
:1031900007B000BD70B504460D4629462046FEF72F
:1031A000BBFF00BF80212046FFF724F80028F9D09C
:1031B00070BD2DE9F04107460D461646002405E096
:1031C000295D3846FFF7E6FF601CC4B2B442F7DB66
:1031D00000BF40213846FFF70DF80028F9D0BDE8C0
:1031E000F08170B506460C46002500BF615D304693
:1031F000FFF7D0FF6D1C605D0028F7D100BF4021B4
:103200003046FEF7F7FF0028F9D070BD2DE9F041F8
:1032100005460C46260AE7B231462846FEF77CFFF3
:1032200000BF80212846FEF7E5FF0028F9D0394687
:103230002846FEF771FF00BF80212846FEF7DAFF1F
:103240000028F9D0BDE8F08170B504460D46E1B222
:103250002048FEF761FF00BF80211E48FEF7CAFF2D
:103260000028F9D0204670BD10B5044600BF2021CB
:103270001848FEF7BFFF0028F9D01648FEF750FFA8
:1032800010BD00B58BB001210846FDF704FD1148C3
:10329000001D0090104801900020029041F28830FB
:1032A0000390002004908020059000200690079055
:1032B00020200890C001099000200A906946074824
:1032C000FDF752F901210548FDF779F90BB000BD72
:1032D0000008014000380140281200205800024038
:1032E00010B540F28641784801F00FF810BD014654
:1032F000754BB3F80034581CC31700EB93539B1263
:10330000A0EB83239AB27048B0F80204904207D031
:103310006D48B0F800046C4B19541846A0F800240E
:1033200070472DE9F04180460E4615461F4631464E
:10333000404600F0F5FF044604B3304601F00EF8B5
:10334000044420783A281BD1641C002005E014F8BE
:10335000013B0146421C90B26B5421782C290AD0C3
:10336000217841B121780D2905D021780A2902D090
:10337000791E8142EBDC0021295401E000202870F5
:10338000BDE8F081F0B591B0044692E04E48B0F847
:1033900002044D490D5CB1F80214481CC11700EB42
:1033A00091518912A0EB8121474AA2F802140A2DFB
:1033B0006CD100211046B0F8842400F204408154FE
:1033C00000204149A1F8840440A1444800F0A8FF2E
:1033D00070B101202070202301AA41A13F48FFF7CE
:1033E000A0FF01A800F0C1FF6060012011B0F0BD96
:1033F0003DA13A4800F094FF08B30220207020233A
:1034000001AA3DA13548FFF78CFF01A800F0ADFFF0
:10341000A060202301AA39A13048FFF782FF01A84C
:1034200002F0E2FA064601F0D2F8E060322304F13D
:10343000100233A12948FFF774FF0120D6E731A11C
:10344000264800F06DFF68B103202070202301AAF8
:1034500030A12248FFF765FF01A800F086FF6060F9
:103460000120C3E72CA11D4800F05AFF68B10420D9
:103470002070202301AA20A11848FFF752FF01A8BD
:1034800000F073FFA0600120B0E711E00D2D0FD018
:103490000D48B0F884047F280ADA0B48B0F8841489
:1034A000B0F88404401C084AA2F884040B48455430
:1034B00000BF0548B0F802040349B1F8001488427F
:1034C0007FF464AF002091E7B0250020434D443ADB
:1034D00053594E435F53544152540000B4290020C5
:1034E000544F54414C000000434D443A53594E430D
:1034F0005F44415441000000494400005052000024
:103500004E4D0000434D443A53594E435F454E449F
:103510000000000053554D00434D443A5343414E83
:10352000000000001FB5FFF7A5FA10220021684631
:10353000FFF7A4FC0398B0F1A53F08D17F4900989C
:103540000860084601687EA001F09CFD05E00020AF
:103550007A49086084A001F095FD8CA001F092FDED
:103560008BA001F08FFD96A001F08CFDA0A001F0D2
:1035700089FD87A001F086FDFFF705FD0446214681
:10358000A7A001F07FFD1FBD10B5AEA001F07AFD30
:103590000020FFF768FB002406E04FF4805101EBA8
:1035A0000430FFF760FB641C142CF6D30020634941
:1035B0000860ACA001F066FD10BD1FB50446009484
:1035C0004FF4807002904FF0A5300390102200213C
:1035D0006846FFF7C2FB594804602146A7A001F0E6
:1035E00051FD1FBD2DE9F04190B004460D46164631
:1035F0001F46009501964FF0A5300F90342102A888
:1036000000F083FE3322394602A800F09BFE4FF4FF
:10361000805000EB8418402241466846FFF79DFB2E
:1036200010B0BDE8F08170B504460D464FF48050EF
:1036300000EB8416402231462846FFF71FFCE86B5A
:10364000B0F1A53F01D1012070BD0020FCE7F8B525
:1036500006460D463948006808B90020F8BD002428
:1036600017E04FF4805000EB841704223946684677
:10367000FFF704FC0098B0420AD1402239462846A0
:10368000FFF7FCFBE86BB0F1A53F01D10120E5E7B6
:10369000641C2A4800688442E3D30020DEE770B54A
:1036A00090B006460D460025002412E069462046EB
:1036B000FFF7B9FF38B106EB84104022694600F0ED
:1036C0000BFE6D1C04E01D480068844200D902E036
:1036D000641CAC42EAD300BF10B070BDF0B593B02B
:1036E00070A001F0CFFC1548006810B113480068C5
:1036F00000E064200546002418E003A92046FFF7F7
:1037000092FF68B1049800F04FFF064605A8CDE986
:103710000061029021466AA0039A01F0B3FC04E024
:1037200006480068844200D902E0641CAC42E4D33D
:1037300000BF6CA001F0A6FC13B0F0BD4800002053
:103740005B50726F647563745D20444220496E69FA
:10375000742E20546F74616C204974656D733A2027
:1037600025640D0A000000005B50726F647563747D
:103770005D20444220456D707479206F7220496E3F
:1037800076616C69642E0D0A000000000D0A0000CD
:103790003D3D3D3D3D3D3D3D3D3D3D3D3D3D3D3D59
:1037A0003D3D3D3D3D3D3D3D3D3D3D3D3D3D3D3D49
:1037B0003D3D3D3D3D3D3D3D3D3D3D3D0D0A000016
:1037C00020202053544D333220536D6172742053A6
:1037D000757065726D61726B657420537973746571
:1037E0006D2056332E302020202020200D0A00008E
:1037F00020202053504920466C6173682044617436
:103800006162617365204C6F616465642E202020C5
:103810002020202020202020202020200D0A000011
:10382000486172647761726520436865636B3A2012
:10383000466C617368204944203D20307825580D3E
:103840000A0000005B50726F647563745D204572FE
:103850006173696E672044617461626173652E2EC5
:103860002E0D0A005B50726F647563745D204572A3
:1038700061736520446F6E652E0D0A005B50726F98
:10388000647563745D204D65746164617461205575
:103890007064617465642E20546F74616C3A2025E5
:1038A000640D0A000D0A2D2D2D2050726F64756372
:1038B000742044756D70202D2D2D0D0A0000000020
:1038C0005B25645D2049443A25642C20507269636D
:1038D000653A252E32662C204E616D653A25730DB2
:1038E0000A0000002D2D2D20456E64202D2D2D0D5C
:1038F0000A00000010B56FF00400FCF774FD2E48BC
:1039000000682E49B0FBF1F02D4908700846007898
:1039100000EB4001C1EBC0104FF6FF7101EAC0009F
:103920002849088010BD0146254A12784A434FF0C5
:10393000E0235A6100229A611A46126942F001029C
:103940001A6100BF4FF0E022106900F001021AB1C5
:1039500000F48032002AF5D04FF0E022126922F004
:1039600001024FF0E0231A6100229A61704701467C
:10397000144A12884A434FF0E0235A6100229A61A8
:103980001A46126942F001021A6100BF4FF0E022AC
:10399000106900F001021AB100F48032002AF5D05B
:1039A0004FF0E022126922F001024FF0E0231A6189
:1039B00000229A61704700000000002000127A0087
:1039C0004C0000204E00002008B54FF48070ADF888
:1039D000000048208DF8030069468548FCF7ACFEDE
:1039E00008BD08B54FF48070ADF8000003208DF8D5
:1039F000020010208DF8030069467D48FCF79CFE0C
:103A000008BD10B5FFF7EDFF00207A49086040F2CD
:103A1000EE20FFF788FF01207749C1F8A0010F20B1
:103A2000FFF781FF10BD10B50024FFF7CDFF04E0C4
:103A3000601CC4B20120FFF776FF6E488038006832
:103A400008B1C82CF4DBC82C01DB012010BD002418
:103A500004E0601CC4B20120FFF765FF65488038B0
:103A6000006808B9F02CF4DBF02C01DB0120EDE755
:103A70000020EBE710B5FFF7B4FF00205D490860B8
:103A80000220FFF750FF01205B49C1F8A001FFF7BA
:103A90009BFF0C20FFF747FF56488038006808B1AD
:103AA000012400E000243220FFF73DFF204610BD36
:103AB00070B50026012508E0FFF7DCFF0446E001B1
:103AC00040EA6600C6B2681CC5B2082DF4DD304677
:103AD00070BD70B50446FFF784FF012520E004F0B7
:103AE000010664106EB10020424908600220FFF711
:103AF0001AFF01204049C1F8A0013C20FFF713FF45
:103B00000CE000203B4908603C20FFF70CFF01203F
:103B10003949C1F8A0010220FFF705FF681CC5B2B2
:103B2000082DDCDD70BD10B5FFF76BFFFFF77BFFE5
:103B3000CC20FFF7CEFF4420FFF7CBFF10BD08B528
:103B400001210820FDF7B4F801212C48FCF7C5FE3F
:103B50004FF48070ADF8000003208DF802001020B3
:103B60008DF8030069462248FCF7E6FDFFF749FFA0
:103B7000FFF759FF08BD2DE9F05FFFF7D4FFFFF70E
:103B800040FFFFF750FFCC20FFF7A3FFBE20FFF759
:103B9000A0FFFFF78DFF8346FFF78AFF824654465A
:103BA0000BEB042084B204F47840B0F5784F0FD1C9
:103BB000E043401C84B2204600F0E9FC07460022A6
:103BC0000F4B00F069FC054600F001FD81460BE05B
:103BD000204600F0DCFC054600220A4B00F05CFCAD
:103BE000074600F0F4FC81464846BDE8F09F00001F
:103BF000000C0140A08121420080214200043000DD
:103C00000000B0BF0000B03F10B50246422900DD01
:103C100010BD52480160002018E000EB001302EBD9
:103C2000830308334E4C44F8203000EB001302EBC2
:103C300083035B684B4C44F8203000EB001302EB2D
:103C400083031B6C484C44F82030401C434B1B68DA
:103C50009842E2DB00BFDBE710B500F0C4F94FF497
:103C6000E13000F09FF84FF4E13000F0FFF810BDB4
:103C700010B500F00EFA00280BDD002000F0F9F975
:103C80000446012000F0D0F9012C01D1012010BD23
:103C900000BF0020FBE72DE9F84F34A000F05EF9EB
:103CA0002F4D304EDFF8C0902C48D0F800A00024F3
:103CB00016E056F8240000F077FC07460B4659F84A
:103CC0002400009055F824103A462BA000F046F945
:103CD000002000E0401C41F288318842FADB641C7D
:103CE0005445E6DBBDE8F88F2DE9F04700251D4E71
:103CF0001D4F1A48D0F800A000240EE057F8240009
:103D000000F03CFC814656F8241000F093FB8046FE
:103D1000294600F037FB0546641C5445EEDB284677
:103D200000F042FC804642460B461AA000F016F90D
:103D3000BDE8F08710B50FE000F0ABF900280BDD0F
:103D4000002000F096F90446012000F06DF9022CE5
:103D500001D1012010BD00BFEEE70000500000209F
:103D6000382A0020402B0020482C002074312E746B
:103D700078743D222200000074312E7478742B3D3B
:103D8000222537732C2530372E32662C25303764A8
:103D90000D0A220074332E7478742B3D22252E32A6
:103DA0006622000010B586B00446012144F20500E9
:103DB000FCF77EFF05A8FCF74AFD4FF40070ADF854
:103DC000140018208DF8170003208DF8160005A99F
:103DD000C048FCF7B1FC05A8FCF739FD4FF4806042
:103DE000ADF8140004208DF8170005A9B948FCF7B8
:103DF000A3FC01218803FCF75BFFB748FEF750F8EE
:103E000001A8FEF7F9F801940020ADF80800ADF81C
:103E10000A00ADF80C000C20ADF80E000020ADF843
:103E2000100001A9AC48FEF77EF82021AA48FEF751
:103E3000EEF91021A848FEF7EAF9012240F22551D7
:103E4000A548FEF708F90121A348FEF7F8F8252058
:103E50008DF8000001208DF801008DF802008DF82A
:103E600003006846FCF775FA06B010BD10B586B0C1
:103E7000044601210520FCF71BFF05A8FCF7E7FC21
:103E80000420ADF8140018208DF8170003208DF8D9
:103E9000160005A98F48FCF74FFC05A8FCF7D7FCD6
:103EA0000820ADF8140004208DF8170005A98948F2
:103EB000FCF742FC01214804FCF707FF8748FDF7A7
:103EC000EFFF01A8FEF798F801940020ADF8080074
:103ED000ADF80A00ADF80C000C20ADF80E00002083
:103EE000ADF8100001A97D48FEF71DF820217B48A0
:103EF000FEF78DF910217948FEF789F9012240F289
:103F000025517648FEF7A7F801217448FEF797F887
:103F100026208DF8000000208DF8010001208DF88A
:103F200002008DF803006846FCF713FA06B010BDD6
:103F300070B504460D460BE014F8011B6748FEF708
:103F4000EBF800BF80216548FEF754F90028F9D04E
:103F5000281EA5F101018DB2EED170BD0FB470B570
:103F60009CB0FF2521A80190652102A8019B209A01
:103F700001F098F806460020019000240CE002A809
:103F8000015D5648FEF7C8F800BF80215348FEF790
:103F900031F90028F9D0641CB442F0DB29464F48BF
:103FA000FEF7BAF800BF80214C48FEF723F900283D
:103FB000F9D029464948FEF7AFF800BF80214748AD
:103FC000FEF718F90028F9D029464448FEF7A4F86E
:103FD00000BF80214148FEF70DF90028F9D01CB040
:103FE00070BC5DF814FB00203D4908804880888043
:103FF00070473B498988B1F5FA7F00DB7047384943
:104000004A88891D8854891F4988491C4FF4FA72CF
:1040100091FBF2F302FB1311314A5180114689885A
:10402000491C918000BFE9E710B502462C48808802
:10403000904202DCFFF7D7FF10BD002315E02848AF
:10404000808810B9FFF7CFFFF6E725480088401CAD
:104050004FF4FA7190FBF1F401FB14002049088041
:1040600008468088401E88805B1C9342E7DB00BFC7
:10407000E2E710B501461A48008808444FF4FA7385
:1040800090FBF3F403FB140082B21548801D805CA2
:1040900010BD13488088704711488088B0F5FA7FBA
:1040A00001D1012070470020FCE710B540F22551F6
:1040B0000A48FEF7B5F801280BD10848FEF730F89A
:1040C000C4B22046FFF795FF40F225510348FEF7A2
:1040D000D1F810BD00080140003801400044004004
:1040E000502D002008B54FF48050ADF8000010208E
:1040F0008DF8030003208DF8020069466848FCF73C
:104100001BFB08BD08B54FF48050ADF8000004203B
:104110008DF8030069466248FCF70EFB08BD10B538
:10412000FFF7E0FF4FF480515D48FCF7B4FB14202B
:10413000FFF71DFC4FF480515948FCF7AAFB1E20E5
:10414000FFF7F1FB10BD10B50024FFF7DBFF04E023
:10415000601CC4B20120FFF7E6FB4FF480515048C9
:10416000FCF77DFB012801D1642CF1DB642C01DB21
:10417000012010BD002404E0601CC4B20120FFF740
:10418000D2FB4FF480514648FCF769FB08B9642C18
:10419000F2DB642C01DB0120EBE70020E9E710B53E
:1041A00001210820FCF784FDFFF7B9FFFFF7CBFFE3
:1041B00010BD10B5002404E0601CC4B20120FFF75C
:1041C000B2FB4FF480513648FCF749FB012801D17E
:1041D000642CF1DB002404E0601CC4B20120FFF772
:1041E000A2FB4FF480512E48FCF739FB08B9642C30
:1041F000F2DB2820FFF797FB4FF480512848FCF7AB
:104200002EFB012800D110BD0020FCE770B5002472
:10421000002506E06006040EFFF7CBFF0443681C90
:10422000C5B2082DF6DB204670BD7CB505460E46AE
:10423000FFF775FFFFF787FFF8B9002405E0FFF7E8
:10424000E5FF0DF80400601CC4B2052CF7DB9DF8F7
:1042500000009DF8011008449DF8021008449DF8E4
:10426000031008449DF80410884208D19DF800000E
:1042700030709DF80200287001E001207CBD002014
:10428000FCE71CB500200190009001A96846FFF7EB
:10429000CCFF10B99DF804001CBD0020FCE7000015
:1042A000000C014008B501211020FCF701FD0120A0
:1042B000ADF8000010208DF8030003208DF80200F7
:1042C00069460448FCF738FA01210248FCF7E3FA92
:1042D00008BD00000010014040EA01039B0703D025
:1042E00009E008C9121F08C0042AFAD203E011F835
:1042F000013B00F8013B521EF9D27047D2B201E0F7
:1043000000F8012B491EFBD270470022F6E710B5DA
:1043100013460A4604461946FFF7F0FF204610BD33
:1043200030B505462A460B4612F8010B13F8014B2F
:1043300008B1A042F8D01CB1002802D06D1CF1E7F2
:10434000284630BD10B5044604E00B7800F8013B68
:1043500003B1491C521EF8D2204610BD421C10F871
:10436000011B0029FBD1801A704770B5064600F08A
:10437000AFFE046805460A220021304600F0E4F949
:104380002C6070BDF0B480EA0102D40F4200B2EBA1
:10439000410F02D20246084611464A0042D0C30DE0
:1043A000DDB2C1F3C752AD1A202D35DAC1F31601C3
:1043B00041F4000204B15242C5F1200602FA06F1AE
:1043C0002A411044B3EBD05F23D0C4B1012DA0EB40
:1043D000C35009DCF0BC4FF0004202EAC352DBB22A
:1043E00000F5000000F0F1B9400000F1807000EB32
:1043F000C350A0F1807040EAD170490009E049083B
:1044000041EAC071A0EBC35000F50000400800EB8A
:10441000C350F0BC00F0D0B96142012202EB41016F
:10442000001BF6E7F0BC704781F00041AAE780F07E
:104430000040A7E780EA010210B502F00043400007
:1044400022D04A001FD0010E01EB1261C0F35600CA
:10445000C2F3560240F4000042F40002A0FB022026
:1044600000047F39140400D0401C50EA124001D4EB
:104470004000491EC2B20C0604EBD010401C40089C
:10448000802A02D003E0002010BD20F001000029A6
:1044900000DA0020184310BD2DE9FE4F81EA030425
:1044A00004F0004421F0004100944FF0000B23F091
:1044B000004350EA01045ED052EA03045BD0C3F328
:1044C0000A54C1F30A552C44A4F2F3340194A0FB1E
:1044D0000254C1F3130141F48011C3F3130343F4F5
:1044E000801301FB024400FB034E840A970A44EA4E
:1044F000815447EA8357A4FB076802958D0A05FBA0
:1045000007854FEA932C04FB0C542705029D4FEAC4
:10451000065847EA1637B5EB08056EEB070C870E11
:10452000920E47EA811742EA8312A7FB0201B6EB1B
:104530000B0164EB00042B0D43EA0C335E1844EBD3
:104540001C50DA465146E7FB0201C5F313044FEA5B
:104550000B3343EA14534FEA0432019C43EA060347
:10456000A4F10C040294009CCDE900B400F06AF9B7
:1045700003B0BDE8F08F00200146F9E7C10F80EAE3
:10458000E0700844CA079623002100F01EB90EB55A
:1045900040F2334102910021CDE900110A460B4659
:1045A00000F050F903B000BD00F0004230F00040D0
:1045B0000AD0C10D01F56071C0F3160042EA015145
:1045C000C20840071143704700200146704701F0C0
:1045D000004330B421F0004150EA010206D00A0D38
:1045E000A2F56072C1F31301002A02DC30BC002086
:1045F0007047440F44EAC104C100E01830BC00EB2E
:10460000C25000F0D9B80000002801DBC0F1004022
:10461000002901DBC1F100418842704730B50B46EB
:10462000014600202022012409E021FA02F59D42E2
:1046300005D303FA02F5491B04FA02F52844151EB6
:10464000A2F10102F1DC30BD2DE9F05F054600204A
:1046500092469B4688460646814640241BE02846F3
:1046600041464746224600F0A2FA53465A46C01A2F
:10467000914110D311461846224600F089FA2D1AAE
:1046800067EB01084F4622460120002100F080FA26
:1046900017EB00094E41201EA4F10104DFDC48465F
:1046A00031462A464346BDE8F09F00000FB4002380
:1046B00000B589B00CA900910B996FF00042CB6056
:1046C0001E4B06931E4B07930423CDE901321D4A6E
:1046D000089202466B46002000F02EFB09B05DF800
:1046E00014FB70B586B006464FF0FF300091CDE95F
:1046F0000101002015460C4604903246694604A884
:10470000FFF7D4FF02460498211825B108B10846E6
:1047100000E020462860049800280DD0002A02DD21
:104720000098884208D0081B0094CDE90104324665
:10473000694604A8FFF7BAFF06B070BD714F0008C4
:104740008F4F0008FD4B00082DE9F04791460F46BA
:1047500080460446002614F8015B2DB100F04AFAA9
:104760000068405DC007F6D12B2D02D02D2D18D04A
:10477000641E4A463946204600F01AFC27B13968C3
:10478000A14201D1C7F8008071054FF002040BD59A
:104790004042002803DD00F09BFC0460A007BDE858
:1047A000F08746F48066E4E70028F8DA00F090FC31
:1047B00004606FF00040F2E70029A8BF7047401C7A
:1047C000490008BF20F00100704710B4B0FA80FC27
:1047D00000FA0CF050EA010404BF10BC704749B164
:1047E000CCF1200421FA04F411FA0CF118BF0121D4
:1047F00021430843A3EB0C01CB1D4FEA00614FEAB4
:10480000102042BF002010BC704700EBC350104482
:104810000029A4BF10BC7047401C490008BF20F00D
:10482000010010BC704710B5141E73F1000408DAC3
:10483000401C41F1000192185B411A4301D120F064
:10484000010010BD2DE9F04D92469B4611B1B1FA21
:1048500081F202E0B0FA80F22032904600F098F93E
:1048600004460F4640EA0A0041EA0B0153465A4605
:10487000084313D0114653EA010019D0C8F1400291
:10488000504600F094F905460E46504659464246B9
:1048900000F07EF9084305D0012004E020463946A7
:1048A000BDE8F08D0020054346EAE0762C4337430F
:1048B0000A986305E40AA0EB08000022FD0A44EA16
:1048C00047540A3002D500200146E9E701051019D6
:1048D0006941DDE9084500196941BDE8F04DA2E7ED
:1048E0002DE9FE4F804681EA0300C00F0C46009080
:1048F00021F0004123F00045B8EB0200A94105D2A8
:104900004046214690461C460B46024623F0004096
:10491000104347D0270DC7F30A00C3F30A51029092
:10492000401A019040286BDAC3F3130040F4801B57
:104930000098924620B10023D2EB030A63EB0B0BE5
:1049400001985946C0F14002504600F021F9064650
:104950000D4650465946019A00F039F910EB08000F
:104960006141002487EA115284EAE7731A4340D078
:10497000009A62B3019A012A4FEA075215DC001B24
:1049800061EB02014FF0004202EA0752CDE900421A
:10499000001C41F5801132462B46FFF753FF03B050
:1049A000BDE8F08F40462146F9E7001B61EB0201AC
:1049B000001C41F5801300185B412018A2F5001778
:1049C00047EB030140EAD570B6196D4111E06D085F
:1049D0004FEA360645EAC0754FEA0752001B61EB05
:1049E0000201001C41F5801149084FEA300000190E
:1049F000514132462B4603B0BDE8F04FFFF713BFDD
:104A00000098012240000023D0EB020263EBE07328
:104A1000009821464FEAE074B8EB000061EB040116
:104A2000E9E783F000435BE781F0004158E72DE9B7
:104A3000F04D81EA030404F0004B21F000451446D8
:104A40004FF0000A23F0004150EA050220D054EA5A
:104A500001021DD0C5F30A570246C5F31303C1F383
:104A60001300C1F30A5640F4801543F48013A7EBFA
:104A70000608101BD64608F2FD3873EB050002D37A
:104A800008F1010801E092185B41B8F1000F03DA68
:104A900000200146BDE8F08D00204FF4801106464D
:104AA00084460EE0171B73EB050705D3121B63EB5F
:104AB000050306434CEA010C49084FEA30009218FE
:104AC0005B4150EA0107EDD152EA030012D082EABD
:104AD000040083EA0501084305D0101BAB4106D250
:104AE0000122002306E000224FF0004302E06FF0B5
:104AF000010253101AEB06004CEB085110EB0A00B0
:104B000041EB0B01BDE8F04DFFF78DBEC1F30A523A
:104B1000C1F3130140F2FF3341F480119A4202DAEB
:104B200000200146704740F233439A42A2F23342DA
:104B300002DC524200F03BB800F02AB830B5041E47
:104B400071F1000404DB4FF00044404264EB0101CA
:104B5000141E73F1000405DB1C464FF00043524263
:104B600063EB0403994208BF904230BD064C074DE9
:104B700006E0E06840F0010394E80700984710342D
:104B8000AC42F6D3FBF7D8FA405B0008605B000844
:104B9000202A04DB203A00FA02F1002070479140FD
:104BA000C2F1200320FA03F3194390407047202AF2
:104BB00004DB203A21FA02F00021704721FA02F3C7
:104BC000D040C2F120029140084319467047202A84
:104BD00006DBCB17203A41FA02F043EAE07306E025
:104BE00041FA02F3D040C2F1200291400843194635
:104BF0007047000000487047945A000810B50446FA
:104C0000FFF7F8FF0068005D00F0010010BD000034
:104C10002DE9FF4F087883B09946FF2805D0491C3D
:104C20002D2804D00024002008E000200BE00124FF
:104C3000F9E700EB800003EB4000491C0B78FF2BE9
:104C4000F7D104B1404200230293147819461D465F
:104C50002D2C01D02B2C04D1521C2D2C13D0002430
:104C60000294AA461478FF2C0FD00A25A3FB0578DE
:104C700001FB05814FF0000C03FB0C11521CE319E2
:104C80004AEB0101EEE70124EAE7814453EA01001F
:104C900002D019F5C87F06DA03980021C0E9001197
:104CA00007B0BDE8F08F0025AE4E2F46DFF8B88282
:104CB000184600F0DAF9CDE90001B9F1000002DA96
:104CC000C9F1000400E004460023A74A1AEB030BD5
:104CD00042EB045A12E0E00707D02A463346384632
:104CE0004146FFF7D9FB074688462A463346104619
:104CF0001946FFF7D1FB05460E466410002CEAD199
:104D0000DDE90001B9F1000F5A46534606DAFFF714
:104D10008EFE3A464346FFF78AFE05E0FFF7BCFBEE
:104D20003A464346FFF7B8FB029A0AB181F00041C8
:104D3000039AC2E90001B3E72DE9FF4F1F468DB08A
:104D4000D7E901464FF0FF382E2045464FF00009C5
:104D50000B90B9696D1C0E988847396A824688475E
:104D60000028F6D1BAF1FF3F0AD024F4D064002E17
:104D700011DDBAF12B0F08D0BAF12D0F0BD102E0E3
:104D8000404611B08DE744F48064B9696D1C0E98FB
:104D900088478246761E6946600501D52D2000E0D1
:104DA0002B208DF8000001F1010B0DF1200809E026
:104DB000B9696D1C0E98884782460F9844F40074B8
:104DC000761E0560002E02DDBAF1300FF0D00B998F
:104DD0008A453ED144F0800406E00F99681CA9F191
:104DE000010944F400740860B9696D1C761E0E98C0
:104DF000884782463028F0D02BE00B998A4505D1B0
:104E0000200603D444F08004761E18E0504600F0DB
:104E100041FA08B30DF11301761E44F400748B457A
:104E200008D2AAF130000BF8010B200607D5A9F132
:104E3000010003E0200602D409F101008146A0052B
:104E400002D50F99681C0860B9696D1C0E988847D7
:104E50008246002ED1DC53E0002E51DDBAF1650F01
:104E600002D0BAF1450F4BD1A00549D5B9696D1CE7
:104E700024F44074761E0E9888478246002E0CDD7E
:104E80002B2804D0BAF12D0F07D144F48074B969EE
:104E90006D1C0E9888478246761EE00501D52D21AF
:104EA00000E02B2108F8011BCDF82C8021E00DF14A
:104EB0002901761E44F4007488450CD2AAF1300012
:104EC00010F0FF0088F8000002D10B99884509D93D
:104ED00008F1010806E0E00501D5244801E042F2AE
:104EE0000F708146B9696D1C0E98884782460F98ED
:104EF0000560002E04DD504600F0CCF90028D6D124
:104F0000F9690E988847FF208BF8000088F80000A8
:104F10000020069007904B466A4608A906A8FFF7AE
:104F200077FEA00502D46FF001002AE714F0240FE9
:104F30000AD0E00714D1DDE906123868031D3B6092
:104F40000068C0E900120BE0DDE90601FFF73FFB56
:104F50000146E00704D13868021D3A60006801602C
:104F600028460EE7000014400000F03FF1D8FFFF94
:104F7000426842B1016811F8013B23B1521EC0E9F9
:104F80000012184670470121C160881E70474268B0
:104F90005AB1C368016843B983688B4205D0491E82
:104FA000521CC0E90012002070474FF0FF307047DC
:104FB0002DE9F05F82460078002715468B460AF1FE
:104FC0000104B946302801D09DB113E014F8010B5B
:104FD0000127782803D0582801D045B10AE00DB147
:104FE000102D07D10027102514F8010B02E0082529
:104FF00000E00A250026B0460EE005FB080005FB90
:1050000006F1012701EB10461FFA80F8B6F5803F44
:1050100000D3B94614F8010B294600F018F800280F
:10502000EBDABBF1000F05D00FB1641E00E054466F
:10503000CBF80040B9F1000F06D000F049F802218A
:105040000160C81EBDE8F09F48EA0640FAE73A282A
:1050500000D2303820F02002412A01D3A2F13700DB
:10506000884201D34FF0FF3070470EB540F2334213
:1050700002920022CDE900221346FFF7E3FB03B0C2
:1050800000BD00000FB4054B10B503A9044A0298F7
:1050900000F008F910BC5DF814FB0000493200086C
:1050A000540000207CB5044600201D461646002909
:1050B0000BD0491ECDE90041044B6A4629463046D3
:1050C00000F0F0F8009A002111707CBDD35900085F
:1050D00000487047580000200148006870470000F1
:1050E0005800002002E008C8121F08C1002AFAD1A7
:1050F00070477047002001E001C1121F002AFBD158
:105100007047000001490860704700005800002007
:105110002DE9FF5F82B00021DDE90430020DDDF8EA
:1051200040B0034318D044F61050A2F2FF3242437D
:105130001514119801281FD0A5EB0B00401C5FEA45
:10514000000A4FF000064E4FDFF83891B046504647
:1051500015D5CAF1000413E0119801244AA30128CF
:1051600001D16FEA0B010298119AC0E90031C0E940
:10517000024206B0BDE8F09FCBF10000DFE7044635
:105180000021404A491842EB0450CDE9001012E0DA
:10519000E00707D032463B4640464946FFF77CF9D8
:1051A0008046894632463B4610461946FFF774F959
:1051B00006460F466410002CEAD1DDE90401DDE962
:1051C0000023BAF1000F06DAFFF766F942464B46B4
:1051D000FFF762F905E0FFF72AFC42464B46FFF76E
:1051E00026FC04460E460022284BFFF7A7FC03D8F6
:1051F0004FF0FF30014607E00022254B20463146A4
:10520000FFF76EFBFFF782FC102409E0002C0ADB9D
:105210000A220023FFF718FA039B30321A55641E46
:1052200050EA0102F2D1641C039AC4F11103144440
:10523000119A012A03D0012208430DD10AE0084344
:1052400004D000204FF0110B119072E7A3EB0B0577
:105250006D1E0DE05B4504DD4FF0000205F1010518
:1052600004E003DA4FF00002A5F10105002AECD0BA
:1052700002981199C0E90231C0E9004579E70000C0
:10528000000014400000F03F300000000000F04338
:105290000000E03F30380A2801D20120704700208A
:1052A000704700002DE9FF4F95B09B4689460646A2
:1052B00000250FE2252877D100242746F84A01214E
:1052C000059400E0044316F8013F203B01FA03F087
:1052D0001042F7D130782A2811D06FF02F033078A0
:1052E000A0F13002092A16D8059A44F0020402EB14
:1052F000820203EB42021044761C0590EFE759F856
:10530000042B0592002A03DA504244F4005405901D
:1053100044F00204761C30782E2816D116F8010FBE
:1053200044F004042A280DD06FF02F023078A0F149
:105330003003092B09D807EB870302EB4303C71897
:10534000761CF3E759F8047B761C30786C280FD074
:1053500006DC4C2817D068280DD06A2814D104E048
:10536000742810D07A280FD10DE044F400140AE01C
:1053700044F4801401E044F440147278824202D173
:1053800004F58014761C761C307866280BD013DC6C
:10539000582877D009DC002875D04528F6D0462853
:1053A000F4D047281AD19DE118E0632835D064284D
:1053B00079D0652812D195E1702873D008DC672870
:1053C000F1D069286FD06E280DD06F2806D1B5E0D6
:1053D00073282CD0752875D0782874D05A46179920
:1053E00090476D1C75E1C4F30250022809D00328D0
:1053F0000DD0D9F8001004280DD00D6009F1040972
:1054000067E1D9F80010EA17C1E90052F6E7D9F8C8
:1054100000100D80F2E70D70F0E719F8041B8DF80D
:10542000001000208DF80100EA46012003E059F841
:1054300004AB4FF0FF3061074FF0000102D40DE0E4
:1054400008F101018846B9420FDA8045F8DB1AF805
:1054500008100029F4D108E008F1010188468142D2
:10546000FADB1AF808100029F6D105985B46A0EB84
:10547000080721463846179A00F094FA284400EBB2
:10548000080507E04DE029E10DE01AF8010B5A4646
:1054900017999047B8F10108F7D25B462146384684
:1054A000179A13E142E00A220092C4F302524FF02D
:1054B000000A022A08D059F804CB032A4FEAEC71FB
:1054C0000AD00DE029E02AE009F1070121F00702E6
:1054D000F2E802C1914609E00FFA8CFC4FEAEC7148
:1054E000042A03D14FFA8CFC4FEAEC71002907DA49
:1054F0000A460021DCF1000C61EB02012D2202E0E2
:10550000220504D52B228DF80420012203E0E207B6
:1055100001D02022F7E7904659E00A2102E010224C
:105520000DE010214FF0000A00910BE010224FF027
:10553000000A44F004040827009203E008224FF018
:10554000000A0092C4F30252022A05D059F804CB93
:105550000021032A08D009E009F1070121F0070220
:10556000F2E802C1914605E01FFA8CFC042A01D141
:105570000CF0FF0C4FF00008220728D5702806D049
:10558000009B83F0100353EA0A0305D00EE040228B
:105590008DF80420012208E05CEA010206D03022E6
:1055A0008DF804208DF8050002229046009B83F0C0
:1055B000080353EA0A030AD15CEA010201D1620737
:1055C00005D530228DF804204FF001087F1E5828A1
:1055D00004D034A003900EA802900DE036A0F9E7A5
:1055E00053466046009AFFF72FF884460398825C82
:1055F0000298401E029002705CEA0100F0D102980D
:1056000006A9081A00F1200A600702D524F48034A4
:1056100000E00127574502DDA7EB0A0000E000206B
:1056200000EB0A01009005984144401A0590E00300
:1056300006D45B462146179A059800F0B3F9054455
:10564000002706E001A85A46C05D179990476D1CD7
:105650007F1C4745F6DBE0030CD55B462146179AD5
:10566000059800F09FF9054404E030205A46179948
:1056700090476D1C0099481E00900029F5DC08E059
:10568000029802995A460078491C0291179990474E
:105690006D1CBAF10001AAF1010AF1DC65E100001C
:1056A00009280100303132333435363738396162F8
:1056B00063646566000000003031323334353637BC
:1056C00038394142434445460000000000F058F993
:1056D0000544761C307800287FF4ECAD19B02846DC
:1056E000BDE8F08F620700D4062709F1070222F017
:1056F000070CFCE80223E14603F000485FEA080CCF
:1057000002D00FF2702C0DE05FEA045C02D50FF2BC
:10571000682C07E05FEAC47C02D00FF2602C01E045
:10572000AFF2700C4FF0FF3823F00043CDF850C0BB
:1057300065280CD006DC452809D046281DD047280E
:105740003DD13DE0662818D067287ED138E00021A1
:10575000112F01DB112000E0781CCDE9000106A922
:105760000EA8FFF7D5FCDDE90F010E9A0391002189
:10577000009207F1010A04914DE04FF000400097BC
:10578000CDE9011006A90EA8FFF7C2FCDDE90F0262
:1057900003920E9B11990022DDF80CA00093049255
:1057A00011B9791C00EB010AB7EB0A0004D4C0F16F
:1057B000FF3007F1010A0490AAEB0700019044E0D2
:1057C000012F00DA01270021112F01DD112000E057
:1057D0003846CDE9000106A90EA8FFF799FCDDE9DE
:1057E0000F010E9A0391002104910092BA462107FD
:1057F0000CD40399514500DA8A46BAF1010F05DD50
:10580000009AAAF10101515C302908D0B84202DAAD
:1058100010F1040F06DA0121CDE9011015E0AAF11B
:105820000101E9E7002805DC049901440491AAEB91
:10583000000102E0411C514500DD8A460499401AEE
:10584000401C01904FF000400290200704D40198C2
:10585000504501DBCDF8048000208DF84F00029800
:105860000DF14F07B0F1004F25D02B200E9002987C
:105870004FF0020800280CDA404202902D200E90D2
:1058800007E00A210298FEF7C9FE3031029007F8BE
:10589000011DB8F10001A8F10108F2DC029800280E
:1058A000EFD1791E0E980870307800F0200040F09B
:1058B000450007F8020D12A8C01B00F10708149854
:1058C000007800B1012000EB0A01019801EBE071C2
:1058D00005984144401A401E0590E00306D45B46FB
:1058E0002146179A059800F05DF805441498007851
:1058F00018B15A46179990476D1CE00324D55B46B2
:105900002146179A059800F04DF805441CE00498CC
:10591000002807DBDDE90301884203DD0098405CD5
:10592000179901E0179930205A469047049805F1DD
:105930000105401C04900198401E019004D12E20C6
:105940005A46179990476D1CBAF10001AAF1010A55
:10595000DDDC05E017F8010B5A46179990476D1CDE
:10596000B8F10001A8F10108F4DC5B462146179A62
:105970000598ABE62D0000002B0000002000000081
:105980002DE9F041044600251E461746880404D43C
:1059900005E039462020B0476D1C641EF9D5284625
:1059A000BDE8F0812DE9F041044600251E469046F1
:1059B000C80301D5302700E02027880404D505E07E
:1059C00041463846B0476D1C641EF9D52846BDE8EF
:1059D000F0814A68002A06D00A68531C0B601070D8
:1059E0004868401E4860704730B583B00446FFF7F2
:1059F00073FB05460020CDE90000024621466846BB
:105A0000FEF76FFE2846FFF77DFBDDE9000103B0DE
:105A100030BD004040404040404040404141414155
:105A20004140404040404040404040404040404075
:105A30004040400502020202020202020202020289
:105A4000020202202020202020202020200202020A
:105A5000020202029090909090901010101010107E
:105A60001010101010101010101010101010020252
:105A700002020202888888888888080808080808BE
:105A800008080808080808080808080808080202A2
:105A900002024000135A00085B456D657267656E2F
:105AA00063795D2054656D706572617475726520EF
:105AB0006F722048756D69646974792045786365F3
:105AC00065646564204C696D697473212054656D4B
:105AD000703A20252E32662C2048756D69646974F1
